:020000040800F2
:10000000F80E0020C10100084B1C00083D16000836
:10001000491C00083D0900083D3A000800000000A6
:10002000000000000000000000000000192F000880
:10003000810F000800000000552800085139000811
:10004000DB010008DB010008DB010008DB01000820
:10005000DB010008DB010008DB0100085F1300087A
:10006000DB0100086F130008DB010008DB0100085A
:10007000DB010008DB010008DB010008DB010008F0
:10008000DB010008DB010008DB010008DB010008E0
:10009000DB010008DB010008DB010008DB010008D0
:1000A000DB010008DB010008DB010008DB010008C0
:1000B000DB010008DB010008DB010008DB010008B0
:1000C000DB010008DB010008DB010008DB010008A0
:1000D000DB010008DB010008DB010008DB01000890
:1000E0004D130008DB010008DB010008DB010008FC
:1000F000DB010008DB010008DB010008DB01000870
:10010000DB010008DB010008E1390008DB01000821
:10011000DB010008DB010008DB010008DB0100084F
:10012000DB010008DB010008DB010008DB0100083F
:10013000DB010008DB010008DB010008DB0100082F
:10014000DB010008DB010008DB010008DB0100081F
:10015000DB010008DB010008DB010008DB0100080F
:10016000DB010008DB010008DB010008DB010008FF
:10017000DB010008DB010008DB01000800000000D3
:10018000DB010008DB010008DB010008DB010008DF
:10019000DB010008DB010008DB01000800000000B3
:1001A000DB010008DB010008DB010008DFF80CD0F0
:1001B00000F032F800480047793E0008F80E0020B1
:1001C0000648804706480047FEE7FEE7FEE7FEE7F1
:1001D000FEE7FEE7FEE7FEE7FEE7FEE7553900082B
:1001E000AD01000840EA01039B0703D009E008C9FC
:1001F000121F08C0042AFAD203E011F8013B00F8EC
:10020000013B521EF9D27047421C10F8011B002915
:10021000FBD1801A70470000064C074D06E0E068ED
:1002200040F0010394E8070098471034AC42F6D33D
:10023000FFF7C0FF5C4A00087C4A000870B58C18C4
:1002400010F8015B15F0070301D110F8013B2A11EA
:1002500006D110F8012B03E010F8016B01F8016BD7
:100260005B1EF9D12B0705D40023521E0DD401F8D3
:10027000013BFAE710F8013BCB1A921C03E013F89C
:10028000015B01F8015B521EF9D5A142D8D30020D1
:1002900070BD00002DE9F05FD34E8A460024611E38
:1002A0007182C10600F00F054FF00109304686F853
:1002B0000B90C07BA34604D54FF0010B20F010003B
:1002C00005E0C10601D5012D70D100F00F00F073DB
:1002D000000605EB1050C0B20027804644281DD010
:1002E00009DC122811D022280FD024280FD0B8F111
:1002F000420F20D109E0482810D0822805D0842858
:100300000CD0B8F1880F16D108E0022007E0B649FA
:100310002E31881E00F038FA040004D1B07B00F0C2
:10032000FBFC040007D0F07B02286ED004286DD0BF
:1003300008286CD1EAE077854046B8F1340F22D026
:1003400022DC222831D010DC14281CD007DC112834
:1003500074D012283BD0B8F1130F70D131E01828B7
:1003600011D0B8F1210F6AD1ABE028280BD005DC01
:10037000232808D0B8F1240F61D149E0312822D0D8
:10038000B8F1320F5BD1BDE048285ED00FDC4228C7
:100390007FD005DC38286FD0B8F1410F4FD187E00E
:1003A000432869D0B8F1440F49D195E0F9E0A8F1AC
:1003B0008100082843D2DFE800F07265A560A7A796
:1003C000A78F1324BDE0894813240770B9E003F018
:1003D0001DFB307820B101F00DFB040002D006E0D7
:1003E0005124AEE0F77200F075FA040004D0FF2C3F
:1003F0006FD0F07A20B105E07D4981F80090A0E04F
:1004000000F06EFA01F02EFB9BE087E082E071E0E5
:1004100002F0ACFF040006D17348F772383000F0E8
:1004200057FA040004D0FF2C53D0F07A40B109E011
:10043000308F02F049FF86F8029082E04AE063E0E4
:1004400000F04CFA03F0AAF97BE003F08BF904000A
:1004500004D1F77200F040FA040004D0FF2C38D029
:10046000F07A18B104E086F801906AE000F03AFAF8
:1004700003F0CAF965E00CE044E000F033FA03F061
:10048000C3F90AE000F02EFA044603F0BDF9F77252
:1004900084BB00F023FA03F081F9F77251E000F019
:1004A00021FA044603F0B0F9F7721CBB4FF0410883
:1004B00000F014FA044603F071F9F772D4B94FF062
:1004C000210801F0CFFA00F00BFA04464748077004
:1004D00028E04BE045480770BBF1000F02D04046D2
:1004E00000F050F9F07B10F00C0F09D0F08D10B136
:1004F000022003E016E0B08D10B1032000F03FFFB2
:10050000FE241EE011241CE012241AE000F0EAF997
:1005100003F07AF900F0E2F903F040F9162C04D068
:100520000220F073FF2C21D00BE001F09BFA00F0C9
:10053000D7F9002000F025FD012000F022FD86F80B
:100540000F90F07B00F00F01A9424AD054EA0A0153
:100550002ED0284300072BD5707818B100F0C2F9CF
:1005600003F052F9F08DF0B102201FE086F80C90F4
:100570004046A6F82A80B8F1120F07D0132805D0FC
:10058000242806D0482804D0C82004E04FF4FA609C
:1005900001E042F2283000B20A2190FBF1F1401A4A
:1005A0007082BDE8F09FB08D10B1032000F0E9FC2F
:1005B0004CB1F07B082801D10420F073C0B240F0A8
:1005C0001000F07306E0BAF1000002D0044645F0D6
:1005D0001005F5733773F07B2146BDE8F05F02F03C
:1005E0008FBE37730021F8E7400400201805002073
:1005F0008A0400202DE9F0416048017B00297CD06D
:1006000000248046408A01272646D8B1B8F82A003F
:10061000454612285FD013285DD024286ED0482884
:100620006BD1E87A002868D06879002867D0B5F9DE
:100630001800002861DDB5F91A1088425DDC2E83B0
:100640006E8392E0B8F82A00C0F30715122806D08E
:10065000132804D024280FD0482855D118E098F842
:100660000B0008B900F03CF901F0FCF90BE0B8F818
:10067000284049E0012447E098F80B0008B900F051
:100680002DF903F08BF898F80A000028F2D0EEE775
:1006900098F8050090B198F8060018B198F8030092
:1006A00010B106E02D2405E0B8F82E0008B11B2497
:1006B00000E01A2498F80B0040B109E0B8F82E00C9
:1006C0000028F4D1082588F801701FE000F00AF92D
:1006D00003F09AF818E0E87A00284CD0EE7200F0A7
:1006E000F9F838B1FF2846D000F0FAF8BDE8F0413B
:1006F00001F0B8B92248077002E03CE011E02FE0B9
:1007000095F82A0000F00F05002D34D088F80C6011
:100710000CB145F0100521462846BDE8F04102F035
:10072000EFBDE87A002826D01448EE72383000F089
:10073000CFF838B1FF281ED000F0D0F8BDE8F04166
:1007400003F02CB8AF700425E0E76F700825DDE7F3
:10075000FF2810D000F0C6F8BDE8F04103F054B80F
:10076000E88D10B1E878002805D0EE7200F0B4F8FA
:100770000028EDD1E9E7BDE8F08100004004002049
:100780008A040020704770472DE9F35F4FF0000A9C
:10079000554654465646DFF8CCB01FE00BEB4600FA
:1007A000408801F05DFB070023D0B869B0F80090E5
:1007B00000200FE000F1010808F0FF00394601F0C9
:1007C000BCFAB969000951F8100054FA80F084B2FB
:1007D0001FFA88F04845EDD3761CB6B2BBF800107E
:1007E000B142DBD8E41D4FEAD409BAF1000F04D0BE
:1007F0002AE000244FF0250AF4E7DFF868B000266D
:100800000BF1040B1CE00BEB4600408801F028FBC9
:10081000070023D0B8690024B0F800800CE0641C05
:10082000E0B2394601F089FAB969000951F81000BF
:1008300055FA80F085B2A4B24445F0D3761CB6B226
:10084000BBF80010B142DED80099ED1DE808088021
:1008500001995046A1F80090BDE8FC9F00254FF09B
:10086000240AF1E7C004002030B50B4B00214FF4FF
:10087000D0541A1F0CE003EB41056D88A54205D149
:10088000956840F8045BD56840F80C5B491C89B258
:100890001D888D42EFD830BDC404002070B50B4BCD
:1008A00000214FF4B0551A461C880CE003EB4106BA
:1008B0007688AE4205D150F8046B166150F80C6B87
:1008C0005661491C89B28C42F0D870BDC00400202A
:1008D00000207047002070470020704700207047BC
:1008E000002070470020704730B5044600204FF6C6
:1008F000FF7505E0204600F023F8002803D12834D6
:100900002189A942F6D130BD38B541EAC000ADF821
:1009100000001021074803F068FA9DF8010003F079
:10092000E5FB054C20709DF8000003F0DFFB6070D4
:1009300038BD00000010024060050020FEE7000006
:1009400030B500B3144A0024116849B10D890389F8
:100950009D4215D90460116841600860106018E07C
:1009600010604460046014E007D90A68C0E90021FF
:100970000A6802B1506008600BE04A6832B1114663
:100980000A899A42F0D14FF0010030BD4860C0E9B9
:1009900000144FF0000030BD0800002030B5064DB7
:1009A0002C6803E02089646800F00EF9002CF9D16E
:1009B0000020286030BD00000800002010B50C4C5D
:1009C000206828B1002100F07FFF002020600BE0AC
:1009D000802003F065FA040008D00E220549FFF7D5
:1009E00001FC204602F0F6F8002010BD072010BDE3
:1009F0003C040020E4060020014800687047000025
:100A00000800002002490020086002490880704761
:100A10003C040020340500202DE9F84F214F3E68AA
:100A2000002E3DD0DFF880A0204C214D9AF8000028
:100A30000090DFF880B0DFF8808023689BF800101A
:100A4000B8F800002A68B0470646FF2828D0DFF82B
:100A50006C90002799F8000001280DD0022804D0DE
:100A600003280CD004280FD109E01549086818B1F3
:100A700003F068F9124807600022114601E022687D
:100A80002968304602F0D6F989F80070A8F800709D
:100A90008BF800702F60034827608AF800700760A9
:100AA000BDE8F88F440500202A05002040050020FD
:100AB0003C0500202B0500203205002029050020E0
:100AC00048050020084900B50020086001F5FC70C9
:100AD000FFF70AFF002805D103485DF804EB183042
:100AE000FFF702BF00BD00000800002038B528480D
:100AF000202300240380448044F21F02446082814A
:100B00002449C0E90414848304620485448580F880
:100B1000404021480380448044608281C0E904143D
:100B2000848304620485448580F840401B48047037
:100B3000FFF7C8FF08B1FFF731FF19480422082169
:100B40000470184804701848048018480470184845
:100B50000460184804601848046018480460684637
:100B6000009400F065FC00980107154801D5047059
:100B700007E00121017004224FF41161114800F0D7
:100B800057FC10494FF47A60091F886038BD000097
:100B90005C06002020A10700A00600201805002008
:100BA000290500202A050020320500202B05002001
:100BB0003C05002040050020440500204805002099
:100BC000840400200C0000200C4B196813E00A89F3
:100BD00082420FD1D1E9002002B1506000B1026021
:100BE00000220A604A601A6809891289914200D17C
:100BF0001860704749680029E9D170470800002053
:100C0000C188090B09290CD2DFE801F00B0905099D
:100C100009090909070001F06DBE01F0DBBF0420DE
:100C2000704705207047000038B51048104C4FF44D
:100C30001161007890B1206900900422684600F0AC
:100C4000F7FB6169009820616268904204D2021C3F
:100C500041F10101C4E90421606004E00448082274
:100C6000103000F0E5FB0020A06038BD84040020B7
:100C70000800002010B50D490D4801234C8D008956
:100C8000002214B90C8D844202D981F8403001E071
:100C900081F8402007494C8D14B90C8D844202D94B
:100CA00081F8403010BD81F8402010BD5C06002066
:100CB0000C050020A006002038B5164C608EB0B19F
:100CC0000025ADF8005002224FF48861684600F01C
:100CD000AFFBBDF80000C00709D1E08D38B16078E6
:100CE00020B11B210420FFF7D5FA38BDE5706079EB
:100CF0000028FAD060780028F7D0A07940B1E079D8
:100D00000028F2D11A21BDE838400420FFF7C2BA0A
:100D10002C21F8E7400400202DE9F047534E05460A
:100D20000024308E42F6FF71884202D21420BDE8C2
:100D3000F087002000F04EFB837942880188DB07B2
:100D40001DD08088C0F38103012B18D1800716D5F0
:100D5000242A14D3802A12D81F03B9420FD34FF488
:100D6000405949450BD2012000F034FB837941887A
:100D70000288DB0703D0808810F00C0F01D0162406
:100D800072E08007FBD52429F9D38029F7D8B8462B
:100D90004245F4D34A45F2D200274FF0010A032D11
:100DA00028D986F809A0032000F014FB8379418834
:100DB0000288DB0719D0D9B1B38D994218D1BBB1E4
:100DC000442915D8808810F00C0F11D1F17B02292D
:100DD00006D0F18E8A420BD180070BD5777209E0DD
:100DE000424505D34A45F7D302E0B08D014301D017
:100DF0001E2439E0022D34D9022000F0EBFA837969
:100E000041880288DB0720D011B3F38D99421FD1AE
:100E1000F3B144291CD88088C0F38101012917D17E
:100E2000F17B022907D0B18E8A4211D1410607D544
:100E300086F804A005E042450AD34A45F6D307E008
:100E4000377180070DD577720BE0F08D014308D024
:100E50001D2409E0284600F0BDFAC08830826D1CD0
:100E6000EDB2B07B8542F5D3204660E74004002018
:100E700070B51F4B41F6324603F144029C891D4B6D
:100E8000751C92891B8802291DD003DC61B30129DE
:100E90002CD104E003291ED0222927D10DE0B04235
:100EA00002D10BB1A1071FD4A8421FD190071DD5B5
:100EB000E3B911480088B8B918E0A84216D19007E4
:100EC00014D58BB912E0B04201D161070CD4A8420D
:100ED0000CD1500706E0B04201D1210704D4A8424A
:100EE00004D11007002801DA002070BD122070BD67
:100EF0005C0600206E0400206C0400201D4A10B522
:100F0000507900280DD0907800280AD0D08B00238B
:100F100040B1918B814205D39371D079002800D0E4
:100F2000D37110BD918B814201D2491C9183012460
:100F30009471518C21B1108C8842EDD2401C1084E8
:100F40000D480E49008D0989884208D2D471B2F942
:100F500018000028E5DD508B401C508310BDD0796F
:100F60000028FBD0D371B2F918000028F6DD5383B6
:100F700010BD0000400400205C0600200C0500208D
:100F8000704738B54FF48071ADF8001040F6060197
:100F900001EBC00402222146684600F085FA0222D5
:100FA0002146684600F044FABDF80000C005F6D5B9
:100FB00038BD0000084810B5007FC00703D10748BE
:100FC000007FC00704D00648008808B900F012FB73
:100FD000BDE81040FFF7D7BB5C060020A00600204C
:100FE0006E04002070B51548007830B11449B1F98D
:100FF0000000002801DD401E088000F0FDF8FFF72A
:101000007DFF1048114902780F4832B1104B026839
:1010100000259A1A75EB050409D3D0E900320D4C6E
:101020001B1942F10002C0E90032086802E04FF4E7
:101030007A600860401C086070BD00004C0400200D
:10104000520400208404002018000020100000201A
:1010500040FBE1FF40420F00F8B50025ADF800501D
:1010600002220421684600F0E3F9BDF800001E4C9E
:10107000000A0222A0730621684600F0D9F9BDF8E3
:10108000000040F6FF7101EB8020208602F0BEFCDC
:10109000002604E03046FFF774FF761CF6B2A07B12
:1010A0008642F7D300F088FBE5722573E570657022
:1010B000A57025716586A583E583258465846571A2
:1010C000A57225852587E585A5850120E07300218A
:1010D00002F016F9658565732572FFF793FCBDE88C
:1010E000F840002001F0EABB400400202DE9FC415B
:1010F00000260120ADF80460ADF8000000F054FCBB
:10110000394F40F60E08387820B102224146684631
:1011100000F08EF900F000FA0446344DC0070FD0FD
:10112000287B68B902224FF4907101A800F080F981
:10113000BDF8040024F01104C0B20021FFF7AAF8A2
:10114000E0060FD5287B78B9E87BC1060ED420F0E5
:10115000100101290AD024F0100400F00F00002132
:10116000FFF798F8287B08B1FFF744FA3878002891
:1011700037D0BDF80000C00705D1E87B002100F0A2
:101180000F00FFF787F8A00509D56E8718480222DF
:10119000018816483A3000F087F900F045FBBDF8A9
:1011A0000000144C8007207801D508B113E090B1FD
:1011B00000F06AFB20780028BDF8000002D040F45F
:1011C000007001E020F40070ADF8000002224146FA
:1011D000684600F069F900F09FF9C00501D500F0FC
:1011E0002FFABDE8FC8100008A04002040040020A2
:1011F000960400208B040020F0B44F4801244F4D8A
:101200000078002210B1EC702A718FE0E888401C51
:1012100081B2E980322905D0642903D0962901D012
:10122000C82973D14648007800F00F034548092BC0
:1012300006D2DFE803F005050713090505050C00D4
:10124000027005E0402300E04123037000E00470D9
:101250000078830604D4C82902D02FE06023F4E785
:101260000023C60603D0C3069B0E5B1EDBB2AE781E
:10127000B04206D0030601D5EA7000E0EC702C8184
:101280001BE0460616D5EE7866B10026EE70A3B1D7
:101290002E89761CB6B22E819E420ED9070603D542
:1012A000EC7002E00126F1E7EA705B1D9E4204D378
:1012B0002A8102E000F00103EB70A8702248007858
:1012C000830601D4C82931D10023C60603D0C30642
:1012D0009B0E5B1EDBB26E78B04206D0030601D5D2
:1012E0002A7100E02C716C811CE0460617D52E791E
:1012F0006EB100262E71ABB16E89761CB6B26E81CE
:101300009E420FD9070604D52C7103E00EE001269A
:10131000F0E72A715B1D9E4204D36A8102E000F06F
:1013200001032B716870C82900D1EA802979E87817
:10133000F0BC00F05EB90000410400201804002059
:101340004F040020850400204D04002010B502F059
:1013500063FABDE810404FF4005002F0EDBC10B548
:1013600002F0D8FABDE81040022002F0E5BC10B54A
:1013700001F090F9BDE81040082002F0DDBC38B55E
:101380000021ADF8001040F6060101EBC004022276
:101390002146684600F088F802222146684600F09F
:1013A00047F8BDF80000C005F6D438BD0188428872
:1013B00091420BD000EB8102491C926889B20180F6
:1013C0008388994203D10021018000E00022104669
:1013D000704700004FF4006110B501EBC001082216
:1013E000024800F025F8014810BD00007C040020F0
:1013F00038B5054600200446009004224FF41161E0
:10140000684600F035F8009828B1854201D8441BA1
:1014100001E0E943441835B104488069A04201D293
:10142000241A00E00024204638BD000018040020E3
:101430002DE9F04114460E4605460C4F10E072B6F9
:1014400002213046FFF760FAFF2002F04FFE05F858
:10145000010B1021384602F0CAFC62B6761CB6B207
:10146000641EA4B2EBD2BDE8F0810000001002407F
:1014700070B50B4605461446002602211846FFF7B4
:1014800043FA06E004B9FF26304602F02FFE05F8C5
:10149000010B641EA4B2F5D2BDE8704010210148D2
:1014A00002F0A5BC00100240F8B514460E460546F1
:1014B0000B4F11E072B604213046FFF725FA287869
:1014C00002F014FE8DF80000102138466D1C02F069
:1014D0008EFC62B6761CB6B2641EA4B2EAD2F8BD27
:1014E0000010024038B514460A460546042110464D
:1014F000FFF70AFA05E0287802F0F8FDADF80000E1
:101500006D1C641EA4B2F6D2BDE83840102101481B
:1015100002F06DBC0010024010B572B61021094CEB
:10152000204602F062FC02224FF408710648FFF7E1
:101530009FFF1021204602F05AFC62B60248008844
:1015400010BD0000001002406005002010B50B4CDB
:101550001021204602F04BFC1021204602F045FCF1
:1015600002224FF408710648FFF782FF102120463F
:1015700002F03DFC0248008810BD0000001002404F
:1015800060050020F8B502F0F1FD02F0BFFC02F0AA
:1015900015FB02F063FA002593244FF40176042230
:1015A000314668460094FFF77FFF042231466846C3
:1015B0000095FFF73DFF00989328F0D104223146B3
:1015C00068460095FFF770FF02F01EFB0222002123
:1015D000092002F0F9FC02F037FB02F057FB02F0A1
:1015E00075FB62B64FF4FA6002F0DCFA0020F8BD39
:1015F000704770470D4810B50078002815D10C4C85
:10160000206970B1FFF7F4FE0A4A2061516809B100
:10161000814200D95060084A516809B1814200D91D
:1016200050600020FFF7E4FE206110BD450400205B
:10163000180400205C060020A0060020FEE7000041
:101640002DE9FC412F4D02226846A989FFF7F0FEE3
:10165000E87901260027012817D10A2002F020FC92
:10166000040012D027606760278104202080A088B2
:10167000002120F47060A080E680072020812046B1
:1016800000F022F9204602F05DFBBDF80000801D4D
:1016900081B2ADF800106878AA79104302D02E709C
:1016A000BDE8FC812F706889814201D9ADF8000046
:1016B00002F0F6FB28610028F1D0BDF80020A989CE
:1016C000FFF7B6FEADF80470022240F6040101A84F
:1016D000FFF7AEFEBDF80400ADF80400BDF804004D
:1016E00000050AD508480780A889698902220844AC
:1016F000801E81B20448FFF79BFE286900F020F9A4
:10170000CEE70000880400207A0400202DE9F84389
:1017100005462648007800F00F00012807D0244E27
:10172000B07820B1707820B10720BDE8F883F020B0
:10173000FBE72C88F18904F106081FFA88F2284695
:10174000FFF7B2FE0027ADF80070022240F60C0150
:101750006846FFF76DFEBDF80000ADF80000BDF86B
:101760000000000519D430891249001B801F80B287
:101770000F80022808D24FEA5801C0F1020205EB9F
:1017800041010C48FEF72EFDF08931890222084400
:10179000801E81B20748FFF787FE706900B137618C
:1017A0000120756170700020BFE700004F04002029
:1017B000880400207A040020F8B5194D2420002464
:1017C0006881802028814001A881E88115480A218C
:1017D00040F60E0604804480818034380222048062
:1017E000448081802C61AC616C61EC61EC70ADF87F
:1017F000004031466846FFF71BFEBDF8000002229C
:1018000020F40070ADF8000031466846FFF74CFE4A
:10181000AC706C702C70AC712C716C71F8BD0000E8
:10182000880400202806002070B5154C002565703E
:10183000A06920B1E16911B902F084FAA56160697B
:10184000A061E06918B1FFF761FFE56105E00D48AF
:10185000FFF7ACFD08B1FFF759FFA07900280DD0C4
:1018600081070BD520F00200A0712069FFF7A6F8D0
:10187000002803D0A07940F00200A07170BD0000E4
:1018800088040020F405002070B50E4DAC698CB1C1
:101890006878002650B1E86940B90120FFF771FB74
:1018A0006869E8610120FFF76AFD6E702046FFF766
:1018B0002DFFAE61E87810B10020E87070BD012006
:1018C000FBE70000880400202DE9F0410546194897
:1018D00000270C46007800F00F00012808D0A888E7
:1018E000154E20F47040A8807179490703D004E0B8
:1018F000F020BDE8F08101217171717940EA013079
:10190000A8802846FFF702FF40B10C49284600F0A6
:10191000A2FF070002D044F0800402E07079401C6E
:101920007071200604D5B17904F07F000843B071CE
:101930003846DEE74F04002088040020F40500202C
:1019400070B5044681882288080B04250126802A68
:1019500006D9258021F47060A080E680082011E07F
:101960000F4910B10A79904213D008710D492046F1
:1019700000F071FF002811D02580A18821F470614A
:10198000A180E68020812046BDE870400021FFF75D
:101990009BBF2046BDE8704002F0D4B970BD000086
:1019A000880400202806002070B5042501260F4871
:1019B000FFF7FCFC04000FD000F0A8F850B1258020
:1019C000A18821F47061A180E68020810021204659
:1019D000FFF77AFF002CEAD105480078002803D0F1
:1019E000BDE87040FFF72CBE70BD00002806002047
:1019F0008804002070B500252846FFF7EBFC184C42
:101A0000418861810088A0810120FFF7E3FC4188C3
:101A100021810088E081A28963891344834204D92B
:101A20000844904201D9162070BD0020FFF7A7FCA2
:101A30000120FFF7A4FC608902F032FA0026206141
:101A400008B1E67107E00120E0710A2002F028FAEF
:101A5000206100B9022502F075F92846266170BDA3
:101A600088040020F8B5274D00242046AC70FFF70D
:101A700088FA0120FFF785FAA86908B102F062F937
:101A8000E86920B1A969884201D002F05BF9686970
:101A900038B1A969884204D0E969884201D002F0CE
:101AA00051F901F00FFA2C61AC616C61EC61EC70E2
:101AB00040F60E06ADF80040022231466846FFF7B8
:101AC000B7FCBDF80000022220F40070ADF8000061
:101AD00031466846FFF7E8FC6C702C70AC712C71D5
:101AE0006C710948FFF762FC10B102F02BF9F8E7BE
:101AF00005483438FFF75AFC002802D002F022F9DA
:101B0000F6E7F8BD88040020280600208188C1F38C
:101B10000321032901D002207047FFF771B80000AC
:101B20002DE9FC411C4D4FF000084646C5F80C80DD
:101B3000FFF792FAFEF7DAFF012028706E712E612E
:101B40006E61AE610096019600244FF411664FF469
:101B50007A77042231466846FFF78AFC0422314630
:101B600001A8FFF785FCDDE90010814201D8401A89
:101B700001E0C94308440190A86948B1019988422D
:101B800000D9A961641CBC42E3D34046BDE8FC8196
:101B90000198A861F6E700001804002070B5224DF6
:101BA000287800283ED02148214C007808B12178BF
:101BB00029BB2049097811BB90B9FFF7ADFC42055C
:101BC0004FF0010106D51C482170007840B100F0AB
:101BD00007FE05E0194A128812B9000500D52170E8
:101BE000092002F0E5F9FFF7E5F91548007808B19A
:101BF00000F0C4FD02220021092002F0E5F911489D
:101C00000068B0F57A6F01D3FFF70EF8FFF76EFAB0
:101C1000FEF702FFFFF750F8E868002802D0BDE8A1
:101C20007040004770BD00001804002048040020E8
:101C30004304002045040020410400206E040020DD
:101C40004204002010000020FEE770476422B1FB30
:101C5000F2F310B5047823440370B1FBF2F302FBF6
:101C600013110A22B1FBF2F3447823444370B1FB11
:101C7000F2F302FB13113031817010BD2DE9FF41E9
:101C80009089556998460F004FF00006C0F3032075
:101C900004D0072802D009280AD026E02846FEF7FB
:101CA000B3FA86B2B8F1000032D0324629462DE0B0
:101CB00001240DE0BC4209D12846FEF7A5FA86B200
:101CC000B8F1000010D0002EEFD10EE0641CA4B2D9
:101CD0002846FEF799FA05446D1CBC4204D82878C2
:101CE000FF2801D0FE28E5D196B90C26B8F1000FE7
:101CF0000ED00D2208496846FEF774FA39460DF1F8
:101D00000900FFF7A3FF0D2269464046FEF76AFA75
:101D100004B03046BDE8F0811905002082890069D1
:101D2000C2F30322082A04D001EB410100EB410079
:101D300070470029FCD0801D7047F0B58A890500E6
:101D40004FF00000C2F3032700D01020072F03D06C
:101D500001234FF4187C31E00020F0BD082F13D090
:101D60000A6903EB430402EB440422881F2A28D0AB
:101D70000DDCA2F10306092E19D2DFE806F02231AC
:101D800018223131181822000C69A41DEDE76245B4
:101D900017D006DC202A23D02E2A12D02F2A06D1D3
:101DA0001EE0A2F50076623E1AD0012E18D0AB429A
:101DB00002D26288104480B25B1C9BB2AB42CDD988
:101DC000F0BD4FF6F0760F303040AB42F4D20B2A24
:101DD00001D0624502D16288104480B21030EAE737
:101DE0004FF6E0761F303040AB42E5D2A2F50076E8
:101DF000623EDED0A2F50076633EDAD02030DAE72C
:101E00002DE9F0478146202101FA09F11FFA81F8F6
:101E1000FEF7F2FD044600261BE02089B0F5805F46
:101E200016D35FEA090511D0277B00230BE0D9B256
:101E30002046FFF773FF808810EA080F00D00025C6
:101E40005B1C9BB215B1BB42F1D901E0761CB6B266
:101E50006468002CE1D13046BDE8F0870A30704755
:101E600010B50446FEF7C8FD03E00189A14202D087
:101E700040680028F9D110BDF0B59489C4F303205F
:101E8000E5B200240226F3B1072823D0082801D0A8
:101E9000012010E090691269007812894243D21D36
:101EA000D0080CE000EB4007136906EB4707401C25
:101EB000DB5BC0B21C44A842F4D9E41DE008002951
:101EC00000D1801CF0BD072806D041B1082808D0F9
:101ED0008D4209D20020F0BD106940880AE001203F
:101EE000F0BD1069008905E0106901EB410106EBC6
:101EF0004101405AC01DC008F0BD00002DE9F05F4F
:101F00008B468246202101FA0AF1BBF800000A9DA7
:101F10001F4616461FFA81F9B0F5805F02D01C48B3
:101F2000046827E0FEF768FD040024D13DB31B20C0
:101F3000287024E02089B0F5805F1AD35FEA0A0395
:101F400012D094F80C8000250BE029462046FFF7BC
:101F5000E5FE808810EA090F00D000236D1CEDB269
:101F600013B14545F1D904E02089B61E27F8020BCC
:101F7000B6B264681CB1012EDCD8218901E04FF6AD
:101F8000FF710348ABF8001004603046BDE8F09FD5
:101F90005C0500202DE9FF4F85B098898846DDE972
:101FA0001249C0F303219A46174600F0FF0B46463C
:101FB0004FF48053CDF80C800191072906D0059885
:101FC000984203D3DAF8180090F800B05FEA0900ED
:101FD00007D007297ED0059898427BD3CDF80CB066
:101FE00013E0D84503D9112009B0BDE8F08F314680
:101FF0005046FFF793FE80880028EBD0B44900F0EC
:102000000702097811EA420F0AD0DAF81C506DB1C4
:10201000CDF8009023463A4641460598A847E3E7A5
:10202000400701D01A20DFE70620DDE70598B0F56C
:10203000805F39D2B8F1000F36D050464146DAF809
:102040001830FFF76BFE4088C01DC20803EB880004
:1020500050F8041CC8071CD0002321F001000AE03E
:1020600030F8021B090A218005785B1C41EA052132
:1020700024F8021B9BB2B3EB520FF1D3D10707D068
:10208000218801F47F412180008841EA10202080CE
:1020900017E131F8020B208031F8020B6080201D1F
:1020A000121FFEF79FF80CE100200290009002E161
:1020B000DAF81850002346B10598B0F5805F04D3D4
:1020C000F0B25146FFF739FE0346180905EB400709
:1020D000F1B200E0BBE05046FFF720FE0546007974
:1020E00000F007017A48007810EA410F6FD04645AA
:1020F00004D0B9F1000F07D0464505D32EB9019899
:10210000072802D024F802BBD3E02888B0F5E06F9E
:102110000DD36988082902D82F3188B207E0102929
:1021200002D0202902D002E0062000E007201F286C
:102130006ED013DC1F286FD2DFE800F03A4A4A6AFB
:102140006F4A6A6F6F8787879D9D9D9D9D789D9D36
:102150009D789D9D9D9D9D789D9D4A00342837D0FA
:1021600012DC302834D008DC202856D02D282FD07F
:102170002E284DD02F287ED14FE0312828D032286C
:1021800026D0332877D123E0B0F5187F5DD006DC68
:1021900035281DD036281BD037286CD118E0A0F583
:1021A0000070613851D001284FD0022863D14CE033
:1021B000B9F1000F5FD06888010703D0C118090783
:1021C00000D1A41CC0F3031004EB400450E054E021
:1021D0006888404903F00F0C31F8100000FA0CF049
:1021E00082B23888190700D121802188B9F1000F07
:1021F00000EA020002D00143218003E020FA0CF043
:1022000008432080A8781844000731D1A41C2FE08F
:1022100018071CD1388806E02DE0180717D1388838
:1022200024F8020B788824F8020B21E018070ED15D
:10223000388824F8020B788824F8020BB88824F830
:10224000040BF88824F8020C12E0180701D00520CE
:10225000CAE668883946C01DC2082046FDF7C2FF9D
:102260006888010904EB4104000701D02078208030
:10227000012002901DE01820B6E60020190700D1C9
:10228000218069880A0704D01944090701D124F87C
:10229000021F002103E0401C24F8021FC0B2AA78EC
:1022A000C2F303128242F6D8287940070BD01A20D5
:1022B0000090761CB6B2039886427FF6F9AE02987B
:1022C00018B1002090E60620F2E700988CE60000A6
:1022D0004F040020C44900082DE9FF4F87B0814614
:1022E0000A988A4617468189DDE9144BC1F3032217
:1022F0000020C9B205910DF1080C014656468CE844
:102300004600A9F5D053A3F50471A9F5B0554FF2D5
:1023100030080191072A10D00A988069007810F0DF
:10232000FF000AD11F2907D94FF400718D4203D352
:102330008B4201D3C14500D105985FEA0B0109D05A
:102340000399072972D05FEA0A0101D107B1207809
:10235000049011E0824503D911200BB0BDE8F08F45
:1023600051460A98FFF7DAFCC5498088097801EAE6
:1023700090010907490F20D0BAF1000F12D001983F
:102380001F2807D94FF40070854203D3834201D33D
:10239000C14507D10A988069007810F0FF0F01D07D
:1023A000012002900A98056A85B123463A465146B3
:1023B0004846CDF800B0A847CFE710F0380F01D05D
:1023C0001A20CAE70028BDD00720C6E707204FF033
:1023D00000080090002F76D047E10A98F1B2856995
:1023E000FFF79CFC0746F0B20A99FFF7A6FC0146EE
:1023F000A3483A79007800EA92000007400F79D0AC
:1024000016B1080905EB4005564504D0BBF1000F95
:1024100071D056456FD366B90398072809D0208834
:10242000059AC1B28A4202D2132096E7F8E02880CA
:1024300082E03888B0F5E06F0DD37A88082A02D898
:102440002F3290B207E0102A02D0202A02D002E0F8
:10245000062000E007201F2872D013DC1F286ED250
:10246000DFE800F03B4A4A6EB84A6EB8B8DCDCDC04
:10247000EFEFEFEFEFCDEFEFEFCDEFEFEFEFEFCDD2
:10248000EFEF4A00342837D012DC302834D008DC93
:10249000202805D02D282FD02E2851D02F284ED1DE
:1024A00098E0312828D0322826D0332847D123E09D
:1024B000B0F5187F10D007DC35281DD036281BD08A
:1024C00037283CD118E0D7E0A0F50070613803D080
:1024D000012801D0022832D1A0E0BBF1000F2ED09C
:1024E0007888020703D00144090700D1A41CC0F377
:1024F000031097E0A7E0B6E07A88624801F00F0C7D
:1025000030F8122002FA0CF083B228889843BBF10D
:10251000000F03D022881A40024308E0238833EAE0
:10252000020823D1134003FA0CF303439AB22A8022
:10253000B8780844000777D1A41C75E000E080E07B
:1025400008076DD12788029810B12888B8424DD16C
:1025500001981F280CD8A7F5B0504FF4007188429D
:1025600006D3A7F5D050884202D30FB11220F4E66B
:10257000A9F5E051323903D0A9F5E051333927D11B
:10258000012E02D0082E0ED022E02888B84206D0B4
:1025900039464846FEF76CFC00900028E7D13A49DE
:1025A0000120087014E0394A0020394BC2E9043098
:1025B00002F144015060C1E904304860BB0707D50F
:1025C0005085108582F840004885088581F84000D4
:1025D0002F80B1E7080723D1029848B128882188C5
:1025E000884203D168886188884201D01C20B4E603
:1025F00034F8020B288034F8020B688014E00807D6
:102600000ED134F8020B288034F8020B688034F8BD
:10261000040BA88034F8020CE88005E0080706D017
:1026200005209AE604EB40044FF001081BE078888F
:102630002146C01DC2082846FDF7D4FD7888000950
:10264000F0E7182089E636B17888020706D0014401
:10265000090702D002E0A41C03E0A41C000904EB5B
:10266000400418200090761CB6B2049886427FF68B
:10267000B4AEB8F1000F01D000206EE600986CE611
:102680004F040020C4490008180500205C06002003
:1026900020A107002DE9F0412C480078002851D0F6
:1026A000FEF754FF2A4E2B4F2B4D2C4C400524D5C2
:1026B0002B48007828B12B48007810B12A49002017
:1026C0000880288D08B1401E2885284920850120D2
:1026D00008702748007810B100F082F80DE002225F
:1026E00031882448FEF7C4FE308839880222084425
:1026F000801E81B21F48FEF7BBFE6888012801D109
:10270000FEF758FC1C48007830B16088012801D0E1
:10271000222801D100F032F8FEF718FF400511D54C
:10272000688D0222401C6885608531881148FEF75B
:102730009FFE3088398802220844801E81B20D48ED
:10274000FEF796FEBDE8F041FEF794BA480400207B
:10275000740400206E0400205C060020A006002007
:1027600046040020450400205404002043040020B7
:10277000410400207A0400204204002070B50026A5
:10278000FEF7E4FE114D124C287FC00702D1207FD6
:10279000C00703D00020FEF72BFE06460D48FEF7CB
:1027A00063F80D4802880D4801880A48FEF79AFE32
:1027B000287FC00702D1207FC00706D03046FEF731
:1027C00017FE6169814200D2606170BD5C06002025
:1027D000A0060020B00500206C0400207604002034
:1027E00070B5164D0024164E287FC00702D1307FE9
:1027F000C0070BD00020FEF7FBFD124904464861DC
:10280000012048710020C861FEF7F4FE0E480288DE
:102810000E4801880E48FEF72BFE0D48FEF73EF8E5
:10282000287FC00702D1307FC00706D02046FEF7C0
:10283000DFFD6969814200D2686170BD5C060020DD
:10284000A0060020180400206E040020740400205C
:102850006C050020704710B54B888C885A1C92B2CA
:10286000944200D100220C88944201D1072010BD6F
:1028700001EB830398604A80002010BD70B51D46AF
:102880001446049AA0F58053F83B01D00B2070BD8C
:102890000AB1052070BD09B1112070BD082C01D905
:1028A0000F2070BDFEF7C0F9224603492846FDF708
:1028B00099FC002070BD00001800002038B50446C7
:1028C0004FF40175022229466846FEF7B1FDBDF8B6
:1028D000002009202240ADF8002001F069FB02220F
:1028E00029466846FEF7E0FD02220021092001F09A
:1028F0006BFB38BD2DE9F04F89B006460189008891
:102900000890B148002401F0FF09007809F0E00BBD
:10291000A046A246254618B1092009B0BDE8F08FAF
:102920005FEA0B0006D0202805D0402803D0BBF179
:10293000600F7CD12BE170894FF6FF7202EA002212
:1029400002EB112189B2000ACDE903010846FFF725
:1029500087FA029000286BD0029800270097007B2E
:102960000399814201D911241EE109F01003029A52
:102970000498FFF781FA824606F10C00011D5546C6
:102980000791BBF1400F05D009F00201BBF1200F08
:1029900019D03DE008990A2933D12946BAF1040F2C
:1029A00007D8BAF1000F04D000210180074641800A
:1029B0002EE086480588103D8D4202D2012000900D
:1029C00026E0079F24E041B108990A2919D1C9F3EB
:1029D0008101C1F1040507461AE0B089F18900EBD5
:1029E00001457B4805F110010088814204D908990E
:1029F000801F814205D106E0089805F10A0188424E
:102A000001D0082089E7DDE907700A388542D5D86A
:102A10005FEAC96004D503984FF00108012834D853
:102A2000009870B3684F01207871387201E0C9E0F6
:102A3000ABE087F80680049838820398F871029812
:102A40003863BBF1400F19D0FD62386A18B101F04C
:102A500079F900203862F86A401C20F0010001F08A
:102A60001FFA386270B1BBF1400F12D0089A079973
:102A70000A3A1546FDF7B6FB00201DE0C7F82CA06A
:102A8000E3E738E0B8F1000F01D005248CE004241E
:102A90008AE0CDE90008DDE903105246029BFFF70A
:102AA00079FA040002D0FF2C09D006E02A46396AE0
:102AB0000798FDF797FB60203871BD6272E0042033
:102AC000787087F802800398F87004987881C7F8C6
:102AD00014A0386AB861029809F0F001C069F86181
:102AE000012038707E62308920F0FF000843308179
:102AF0006020387161E0BAF1000F06D132480499C4
:102B000001820399C17102990163CDE90078029BAA
:102B1000BBF1400F08D0DDE903102A46FFF7DCFBCC
:102B20000446FF2819D03FE0DDE903105246FFF7C5
:102B300031FA0446FF2837D123480321417080F839
:102B400002800399C17004994181C0E905A70299E7
:102B5000C969C161012101700EE01B480122427068
:102B600080F802800399C17004994181C0E905573A
:102B70000299096AC16102704662308909F0F00168
:102B800020F0FF000843308117E008240CE00E49D4
:102B900009798B4516D1BBF1000F30460FD000F0FC
:102BA0000BFB0446FF2C08D0CDE900A6ABB209F020
:102BB00010025946204600F0A1FA0020ADE600F0D0
:102BC000ADF9EEE70324EFE728050020900400208C
:102BD000920400202DE9FF5F002604468DF8046072
:102BE000007A00F07F05022003902088052D05D093
:102BF000082805D2062004B0BDE8F09F0A28F9D3C2
:102C0000864FDFF81C924FF48058012D05D0032D1C
:102C100068D0052D66D00320D7E0A089052860D8AC
:102C2000C5B20E2221467F48FDF7DCFA681E00F08F
:102C3000FF0A0ED2A9F80C6000252846FFF7E0F83D
:102C400004EB45016D1CEDB2C881052DF5D31220B2
:102C500032E0B9F80C004D4648B1398804F10C0354
:102C60000C398AB2E989ADF80810401E14E05046CC
:102C7000FFF7C6F8ADF80880398804F10E030E3965
:102C80008AB2B2EB400F09D2911C89B2C2EB40006C
:102C90000844401E90FBF1F0A88100E0AE8101A83D
:102CA000009002A95046FFF729F9BDF80810E98104
:102CB0003988081A801F80B220809DF804000028FF
:102CC00074D1208920F07F0040F002002081B9F803
:102CD0000C106181002904D040F080002081822006
:102CE000039085E0A089ADF80800404501D2052099
:102CF0006BE0FFF7B5F85FEA000A7CD0032D1ED029
:102D000094F80E805046FFF7A9F880784146804538
:102D10005AD85046FFF702F8016821618088A082E6
:102D2000A07BE0815046FFF799F8408804F1160B2C
:102D3000C0F30320082820D009281ED020E0FFF788
:102D40008DF80068C4F80E00002352461946BDF8FD
:102D50000800FEF793FF39880C3080B2891F884243
:102D600001DD0C202CE004F1120352460021BDF8D5
:102D70000800FEF783FF0C3021E0B8F1000F0ED001
:102D8000002352464146BDF80800FEF777FF398818
:102D9000103080B2891F884209DD102010E00D221A
:102DA00021495846FDF71EFA1C2009E00FE05B465A
:102DB00052464146BDF80800FEF760FF103080B271
:102DC0009DF80410F9B102E011208DF804000A20EA
:102DD0002080208920F07F0040F00700208166815C
:102DE00012489DF8041050F82100E060A9F80C602A
:102DF0002046039900E00FE0FEF766FD08B10C489D
:102E000004600020F7E66681208020896D1C20F098
:102E10007F0028432081EBE70820D6E790040020BC
:102E200028050020E406002019050020E4490008D8
:102E30003C0400202DE9FC47204C814600262078E8
:102E400013460D46002837D0D4F824C09CF808005B
:102E500000F0E00800F01007B8F1400F21D1184849
:102E60000088103886B22046406A1030AE420DD23B
:102E7000012161712172A7716021E56221713246E1
:102E800019462362FDF7AEF9A6620AE0691E03291E
:102E900001D80CF10C00834203D02A461946FDF7F5
:102EA000A1F900202070606A3346CDE900503A460F
:102EB0004146484600F022F9BDE8FC87280500207D
:102EC0009004002070B5114C0025207801280CD109
:102ED000606A50B10E490968884206D00D490968F8
:102EE000884202D000F02EFF65626570A570658192
:102EF000E5706561A561E5612570206A10B100F09B
:102F000021FF2562A562257170BD00002805002003
:102F1000A0040020A4040020704700002DE9FC4715
:102F2000DFF8D09104460289002699F8080002F0E3
:102F300010013746814201D10126AFE06E48CC46F0
:102F4000008889F808100938D9F8201080B20029C3
:102F50007AD0DCE90A359846ED1AD3074FF0010A1A
:102F600014D0854210D82088C01E854205D8C2F3EF
:102F70004203C3F10703AB4203D0072D04D98542B6
:102F800002D18CF8057006E00E2687E08CF805A0CB
:102F90008542F9D9054657485FEAC873806A20F030
:102FA000010018D00A5C0A52DCF82800B4F808C006
:102FB00020F001000CF47F4C42EA0C020A52D9F8CE
:102FC00028006A1E20F00100084404F10A01801C58
:102FD000FDF708F91AE0130AA27A05F1010843EA9D
:102FE00002220A5201200EE004EB40021389927A79
:102FF0001B0A43EA0222DCF8283000EB5303401C92
:1030000021F8132080B2B0EB580FEDD399F80500EA
:10301000C846B8B998F80620D8F82010CDE90012B3
:103020004046D0E90B2398F80710B8F81000FFF7D6
:1030300053F90646FF2808D0D8F8200000F082FE99
:10304000C8F82070C6B329E027E0022188F80110F3
:1030500098F8061088F8021098F8071088F80310FE
:10306000B8F81010A8F80A10D8F82C10C8F81410E6
:10307000D8F82010C8F81810D8F830104046096A5F
:10308000C8F81C1088F800A0C8F8244047710771E0
:10309000FF20C8F82870BDE8FC87032689F8057072
:1030A00089F80470D9F820004C4610B100F04AFEAF
:1030B0002762A7623046EEE7FFE70A202080E0881B
:1030C00020F4704040F44050E08098F808104046EA
:1030D00009B1302100E0202121814179012903D06B
:1030E000876288F80470E5E7816A2944C8F82810E7
:1030F000E0E7000028050020920400202DE9F041BF
:103100000746DDE90604602904D019B1258905F4D4
:103110007F452581E5880A2625F47045AFB12680D4
:1031200045F40050E080208940F080002081204854
:1031300050F82700E06002212046FEF7C5FB00287A
:1031400001D01C480460BDE8F08145F44055E5809D
:10315000402908D031B36029EDD02680208940F085
:1031600060002081E7E7411E03290BD826802189D2
:10317000C0B21143C0F10400432242EA800001437F
:103180002181D8E7834202D20A33238002E000F192
:103190000A012180A081000CE081208942F04101D8
:1031A0000843DEE72680208940F02000D9E70000B0
:1031B000E44900083C0400202DE9F047404F044654
:1031C000007A397A002600F01000884201D10126E9
:1031D0006FE03C494FF00009098838720939D7F887
:1031E00028C08DB2F86A0CEB0501814204D9A0EB2E
:1031F0000C0587F8059001E0012078713048237AAA
:103200002381026A806A5FEACC7820F001010CD049
:10321000505A114400F47F40034323816A1E04F195
:103220000A00891CFCF7DEFF1AE0515C002043EA2B
:1032300001214FEA5C0C21810FE0396A00EB0C029E
:1032400031F8123001EB42011B0A897804EB40028D
:1032500043EA0121401C518180B2B0EB550FECD301
:10326000E08820F4704040F44050E080208920F055
:10327000FF00208179793A7A09B942F001021043BE
:103280002081072D08D20A2020802089C5F107025D
:1032900040EA4200208101E0E81C208001290BD097
:1032A000386A00F04FFDC7F82090C7F8289087F8DB
:1032B00004903046BDE8F087B86A2844B862F8E761
:1032C000280500209004002038B504464FF401750D
:1032D000022229466846FEF7ABF8BDF80020092017
:1032E0002243ADF8002000F063FE02222946684622
:1032F000FEF7DAF802220021092000F065FE38BD51
:10330000F8B5194E0546ADF80010F07B0C46A84202
:1033100000D0F573A4F57F40FF3805D002224FF4AA
:103320009A716846FEF7C0F8F07BADF80000022203
:103330004FF498716846FEF7B7F80CB1E80601D46F
:1033400000200DE02D2C0AD01A2C08D0322C06D0EB
:10335000B07A012803D01B2C04D0402000E041208B
:103360007073F8BD4220FBE7400400202DE9F04FC8
:1033700085B04FF00009F049F04AADF80090ADF883
:103380000490CDF80890CDF80C90DFF8B4838989CB
:1033900094890327A8F838904E463D460C4088F89B
:1033A00003900220FEF716F80288A8F8342000796E
:1033B000800700D501250320FEF70CF80188A8F846
:1033C00036100079C446800700D50127DD48BCF8D7
:1033D0002C80DFF874B308FB07120088824204DDFA
:1033E000BBF8003003448B420AD8D84BDFF860A307
:1033F0001B889A4208DDBAF800201A448A4203D991
:103400001E2005B0BDE8F08FBCF83420BCF82E704B
:1034100007FB0525854204DDBBF800703844904267
:103420000DD89D4204DDBAF800001844904206D839
:10343000E2468D4205DD01EB0800904201D91D20D6
:10344000DFE702224FF4186104A8FDF7F1FF042220
:103450004FF41A6102A8FDF7EBFF042240F6A41115
:1034600003A8FDF7E5FFDFF8D0C2B44FBDF8102088
:10347000BCF802007988039B12F4106F27D012F475
:10348000C06F3FD0950501D455053BD43CB16507CD
:1034900001D4950536D4250701D4550532D4DCF87E
:1034A0001080029D3DB1454503D3DFF8A882454514
:1034B00001D93620A5E75FEA825808D55FEA42586D
:1034C00005D523B1AB4202D30126E4061AD5A24C9E
:1034D0002478CCB112F4106F0CD0540503D4032817
:1034E00010D003290ED0920531D402280AD0022927
:1034F00008D02CE0022805D0032803D0022901D0EF
:1035000003292FD130207CE7BAF82E0012F4106F77
:1035100003D0A0B196B1032011E028B1BAF82C1065
:103520000120F9B122211DE0BAF82C0000284FF04B
:10353000000001D0012115E0002113E00220BAF8BB
:103540002C1021B1510501D5032100E002210328EF
:1035500001D0022806D1029ACCF82420CCF804200D
:103560007A627A609AF8092054460AB948B141B1A2
:1035700050EA01024FF4806B4FF0010503D0257231
:1035800003E029203DE7227A4AB1E28D12B1A4F886
:1035900038B004E0A28D12B14FF4006222870228F5
:1035A00005D0032803D0022901D0032904D1657175
:1035B000E28D0AB9A4F83890ACF802007980A4F83A
:1035C0002490A4F82690A4F81690E246C846A4F8E1
:1035D0001490E6B10298191883420BD3B1FBF0F2B4
:1035E000B1FBF0F392B200FB1313E2821BB9521C41
:1035F000E28200E0E582B1FBF0F2B1FBF0F392B2BF
:1036000000FB1310A28440B1521CA28405E00228E2
:1036100000D1E582032900D0A584504802224FF44E
:103620008461A0F8008001A8FDF702FFBDF8040046
:10363000E18D09B300B3022259466846FDF7F8FE52
:10364000BDF8000080B1BDF80410801C484346F26C
:10365000A7110844491CB0FBF1F00004000C60867F
:1036600006D0207930B10AE0ADF80480A4F83280A9
:10367000207920B11F20C4E6ADF80080F6E7207A5B
:1036800028B1E08D18B1208F40F480602087A4F825
:103690001E80A4F81C80A4F82080A4F8228084F85E
:1036A000068084F80780A4F81880A7F82880A7F877
:1036B0002A8087F84080AAF82880AAF82A808AF809
:1036C0004080BDF81020900527D5254E02980A238A
:1036D00060B1B0FBF6F1052901D2E58306E04FF6B3
:1036E000FF7707EA4101B1FBF3F1E183510514D5FE
:1036F0000399814201D2E08B0EE00844B0FBF6F062
:10370000052801D2658403E04000B0FBF3F060843B
:10371000608CE18B00EB51006084E08D10B10220E1
:10372000FDF72DFEA08D10B10320FDF728FEFFF759
:1037300025F8002065E600005C060020A0060020B9
:1037400040040020960400209004002094040020EF
:1037500092040020000050C3180500202605002018
:10376000A08601000A4AFF20917A09B1108D7047A6
:103770005379002113B1C82313835183054A11855E
:1037800082F84010044A118582F84010704700000A
:10379000400400205C060020A006002010B5164C56
:1037A000E08D10B10220FDF7ECFBA08D10B10320DD
:1037B000FDF7E7FB4FF2F330FFF780F80020E070F1
:1037C00020726071A071E071E082A082E083A0832A
:1037D000208460840949A084E0840885488581F8B4
:1037E000400007490885488581F840002083054945
:1037F0002071A070087010BD400400205C060020FD
:10380000A00600201805002002480021C170417068
:1038100070470000400400202DE9F05F314800258A
:10382000058031480078002858D0DFF8C0A0DFF8C4
:10383000C0809AF8000020B1B8F80010491CA8F820
:1038400000102C4806886EB32B4C83462B482C4A1C
:10385000218800881388DFF8AC90B14215D92A4A34
:10386000128940B1DFF8A4C0BCF82870974202D892
:10387000FF1CACF8287043B1C8B9B9F828009042D1
:1038800005D8C01CA9F8280001E080B97BB1FDF77C
:103890005DFE000507D42088BBF8001088420AD8D6
:1038A000401C208007E02580A9F8285003E0B142A1
:1038B00001D8491C2180FDF77DFB9AF8000068B112
:1038C000134C208850B1B8F800104646884205D104
:1038D000FEF754FF2088012800D13580BDE8F05F55
:1038E000FDF7C8B95C040020450400204204002014
:1038F0006604002056040020540400206E040020BA
:103900006C040020A00600200C0500205C060020AE
:103910006404002010B50948002404800848007899
:1039200040B108484088032804D10748008808B9F6
:10393000FEF724FF0548048010BD0000600400204D
:1039400042040020A0060020640400206604002039
:1039500000F052B81E4818B4016841F470010160CB
:103960001C48016841F00101016001688907FCD52C
:10397000184A0832116841F0800111600023009359
:103980000099491C00915029FAD3116841F0900127
:10399000116000930099491C00915029FAD31168D5
:1039A00021F00301116001680B4C214001600168A6
:1039B00021F4802101601360106806490748091D41
:1039C000086004480C30036018BC00F00DBC000017
:1039D00088ED00E000380240FFFFF6FE10300024C2
:1039E00010B5FDF7FFFABDE810400121014800F0D5
:1039F0000BBD0000000C004003480168002902D004
:103A00000168491E016070470400002038B5002499
:103A1000ADF80040022240F202516846FDF708FD71
:103A2000BDF800000449020501D4C00401D50C70A2
:103A300038BD0120087038BD40040020FEE702E0D8
:103A400008C8121F08C1002AFAD170477047002029
:103A500001E001C1121F002AFBD1704710B540F6EA
:103A6000044488B0204600F003FB204600F000FB31
:103A7000204600F0FDFA204600F0FAFA41F20D105F
:103A800000F0F6FA304C202300220221204600F0FC
:103A9000B0F9202301220021204600F0CEF9202297
:103AA0000521204600F076F940230022022120461D
:103AB00000F09FF9402301220021204600F0BDF9CB
:103AC00040220521204600F065F90423002202214E
:103AD000204600F08EF9042301220021204600F048
:103AE000ACF904220521204600F054F910230022ED
:103AF0000121204600F07DF91023022200212046FA
:103B000000F09BF9102302220021204600F095F9D5
:103B10001021204600F06BF900204FF48271CDE9AE
:103B20000010032105916115CDE902012021074C08
:103B3000069104906946204600F001FB204600F003
:103B4000EFFA08B010BD0000001002400034014040
:103B50001FB541F2030000F08BFA4FF0807000F0C7
:103B6000B7FA0F4C204600F095FBC720ADF80000D7
:103B70000021ADF804104FF47A70ADF802100290F5
:103B8000ADF806108DF80C106946204600F0EEFBEB
:103B90000121204600F034FC204600F0E1FB1FBD6F
:103BA000000C00404FF47A714843034908600868EC
:103BB0000028FCD1704700000400002010B540F63A
:103BC000034000F055FA0F4C012210231146204605
:103BD00000F00FF9102302220021204600F02DF9F9
:103BE0001021204600F001F940F6014000F040FAB3
:103BF00020460022BDE810404FF48043114600F0FB
:103C0000F8B80000000C024010B541F20E1000F0B0
:103C10002FFA40F6044000F02BFA00220823114648
:103C2000084800F0E6F80321042000F0BBFA012266
:103C30000021082000F04CF8BDE81040082000F0FA
:103C40007BB800000010024010B541F20E1000F0E9
:103C50000FFA40F6024000F00BFA4FF40054002235
:103C600023461146084800F0C4F80D21022000F058
:103C700099FA01220021204600F02AF82046BDE8EA
:103C8000104000F059B800000008024010B541F2A1
:103C90000E1000F0EDF940F6054000F0E9F90022C1
:103CA00002231146084800F0A4F80121052000F085
:103CB00079FA01220021022000F00AF8BDE8104044
:103CC000022000F039B8000000140240FFF740BFA6
:103CD000F0B5184D2B6883432B602E1D336883434A
:103CE0003360331D1C6884431C601C1D2768874398
:103CF000276011B1012907D103E029680143296038
:103D000002E031680143316052B1012A0ED0022A2B
:103D100005D1196801431960216801432160F0BD94
:103D200019680143196021688143F7E719688143E5
:103D3000F1E70000003C01400149086070470000C5
:103D4000143C014010B5002821D0114B0022001F67
:103D5000196803E0814203D80A4649680029F9D16D
:103D600052B11368841A9C4204D100681844106050
:103D7000104602E0506000E0186039B102680B1A8A
:103D8000934203D10B681A4402604968416010BD38
:103D900064050020F0B5046A456A00234FF0010C69
:103DA0004FF00F0E0CFA03F6164206D09E000EFAE4
:103DB00006F7BC4301FA06F73C435B1C9BB2082B99
:103DC000F0D308230CFA03F6164207D09E00203EDB
:103DD0000EFA06F7BD4301FA06F73D435B1C9BB2A2
:103DE000102BEFD304624562F0BD816270478161A0
:103DF00070472DE9F0470568C66800244FF0010AB6
:103E00004FF003090AFA04F71F420ED0670009FABF
:103E100007FC25EA0C0526EA0C0601FA07F802FA67
:103E200007FC48EA05054CEA0606641CA4B2102CFF
:103E3000E8D30560C660BDE8F087F0B501294168A8
:103E400018D099434160846800210126032706FAAF
:103E500001F51D4208D04D0007FA05FC24EA0C04C8
:103E600002FA05FC4CEA0404491C89B21029EED37D
:103E70008460F0BD1943E5E710B5FDF783FBFDF75E
:103E80004FFE064C01202070FDF788FE20780128A7
:103E9000FAD0BDE81040FDF7ABBB000038040020AD
:103EA000F0B50B30154D20F007010024144A0FE047
:103EB00003688B420BD38B4205D95E1A43184768BF
:103EC000C3E9006700E04368136002C004E0021D1C
:103ED00010680028ECD12046002802D1286808B1DB
:103EE0000020F0BD064A07481060074A121A22F067
:103EF0000702C0E9002401202860D7E768050020F8
:103F000064050020FC060020F80A002010B54FF4DC
:103F1000A06000F0A3F800221146FF2000F054F842
:103F200001220021142000F04FF80222002141203C
:103F300000F04AF8012200211C2000F045F802227E
:103F400000211D2000F040F800220121252000F072
:103F50003BF801221146262000F036F801221146D6
:103F6000272000F031F801221146342000F02CF80F
:103F700001221146352000F027F801221146472082
:103F800000F022F801221146522000F01DF8012213
:103F90001146532000F018F801220221062000F0FB
:103FA00013F801220221BDE81040072000F00CB8F0
:103FB00000F01F02012191404009800000F1E02043
:103FC000C0F880117047000070B5054622480E46C3
:103FD000002401682346C1F3022107291AD0016891
:103FE000C1F30221062917D00168C1F30221052976
:103FF0000DD00168C1F30221042910D00068C0F37C
:10400000022003280ED04FF4A06000F027F802240D
:10401000234608E0042306E00124032303E00324ED
:10402000012300E00424C4F104008640C3F104012C
:104030000F20C8401040304305F1E021000181F815
:10404000000405F01F01012088406909890001F181
:10405000E021C1F8000170BD0CED00E00249084309
:1040600002490860704700000000FA050CED00E00E
:10407000064901EB9011D1F8002800F01F03012040
:1040800098400243C1F80028704700000030024009
:10409000064901EB9011D1F8002800F01F03012020
:1040A00098408243C1F80028704700000030024069
:1040B000064901EB9011D1F8002800F01F03012000
:1040C00098400243C1F800287047000000300240C9
:1040D000054900F18072521C0A6802D002430A604E
:1040E00070470240FBE700008C38024070B50B4C73
:1040F00005460221204600F01DF80028F9D0294687
:10410000204600F015F80121204600F013F80028A1
:10411000F9D0204600F009F8C0B270BD003401406B
:10412000016841F0400101607047C06880B270478B
:10413000C16070478068084000D001207047026865
:104140000B6802F4415213434A681A438B681343C5
:10415000CA681A430B6913434A6989691A431143B0
:104160000160C16921F40061C16170470A480B49CF
:104170000068B0FBF1F0401EB0F1807F0BD24FF031
:10418000E0214861064AF02082F8140D0020886181
:10419000072008617047FEE70000002040420F0042
:1041A0000FE000E08A07130F0F229A40D243984095
:1041B00089080DD001290ED002290FD0032906D17C
:1041C00008490B6813400B600A6802430A60704795
:1041D00004490C39F5E703490839F2E70149091F99
:1041E000EFE7000014380140274A10B5116800209D
:1041F00041F4803111604FF6FF731168401C11F4D7
:10420000003F01D19842F8D11068800300D4FEE746
:104210001D484030016841F0805101601B49086829
:1042200040F44040086018480830036803600368A1
:1042300043F400430360036843F4A0530360041F86
:10424000134B2360136843F08073136013689B0162
:10425000FCD50A6842F480320A604A68D203FCD571
:104260000A6842F400320A604A689203FCD5016889
:1042700021F003010160016841F002010160016861
:104280000907FCD510BD0000003802400070004056
:10429000196440092F4A10B5811A131590424AD06B
:1042A0001CDC2D4A4FF40064A0EB0201904233D095
:1042B0000ADCB0F1804F43D02849401829D09842F9
:1042C00046D140F602043BE0994228D0A14229D0D1
:1042D000B1F5406F3CD140F6060431E0B1F5923FB4
:1042E00023D00ADC994229D0B1F5644F0ED0B1F544
:1042F000684F2DD140F6011422E0B1F5943F17D05C
:10430000B1F5963F24D140F6121419E04FF4106431
:1043100016E040F6010413E040F6030410E040F616
:1043200004040DE040F605040AE04FF4116407E0D0
:1043300040F6111404E040F6070401E040F60804DA
:104340002046FFF7B5FE2046BDE81040FFF7A0BEAF
:1043500010BD0000001C0040000C004000FCFFBF2E
:10436000016841F0010101607047000030B50A8822
:1043700082621C4A1C4B90420DD0B0F1804F0AD093
:104380001A4CA04207D01A4CA04204D0194CA042AB
:1043900001D098420BD1046824F0700404600468D2
:1043A0004D882C43046004688D882C4304608C681D
:1043B000C462114CA0420AD0104CA04207D004683D
:1043C00024F4407404600468CD882C430460904257
:1043D00001D0984201D1097B0163416941F001019B
:1043E000416130BD00000140000401400004004074
:1043F00000080040000C0040001000400014004085
:10440000C2680A43C2607047C94301617047050032
:104410000800070007002000070007002000070031
:104420005250444F0053554231005355423200FF21
:104430000000050008000700070020000700070033
:10444000200007005450444F00535542310053554B
:10445000423200FF000005000800070006001000BF
:10446000070053796E634D616E616765722032207B
:1044700061737369676E6D656E7400FF00000500FF
:104480000800070006001000070053796E634D61B5
:104490006E6167657220332061737369676E6D6545
:1044A0006E7400FF0000050008008700526573313C
:1044B00000FF0000050008007F005265733200FF16
:1044C0000000050008000700050008008700446997
:1044D0006774616C20696E70757400FF00000500E0
:1044E0000800070007002000870007002000870061
:1044F00007002000870053454E4444415441005377
:10450000454E44310053454E44320053454E4433EA
:1045100000FF0000050008000700050008007F00FC
:104520004C454400FF00050008000700070020007C
:104530007F00070020007F00070020007F00524519
:10454000435644415441005245435631005245437D
:10455000563200524543563300FF00000500080064
:1045600007000600100007000600100007004D6F4E
:1045700064756C6172204465766963652050726F62
:1045800066696C6500496E6465782064697374615E
:104590006E636520004D6178696D756D206E756D77
:1045A000626572206F66206D6F64756C65732000A4
:1045B000FF000700200007004465766963652074EA
:1045C000797065000500080007004572726F72205F
:1045D0007265676973746572000009005000070016
:1045E000446576696365206E616D65000900200091
:1045F000070048617264776172652076657273693D
:104600006F6E0000090020000700536F6674776129
:1046100072652076657273696F6E00000500080090
:104620000700070020000700070020000700070020
:10463000200007000700200007004964656E7469C8
:1046400074790056656E646F722049440050726F31
:104650006475637420636F6465005265766973697D
:104660006F6E0053657269616C206E756D62657264
:1046700000FF0000050008000700070020003F00C1
:10468000060010003F004572726F7220536574740B
:10469000696E6773004C6F63616C204572726F7254
:1046A000205265616374696F6E0053796E632045B3
:1046B00072726F7220436F756E746572204C696DF3
:1046C000697400FF00001B004000BF0054696D6565
:1046D0007374616D70204F626A65637400FF00003F
:1046E00005000800070005000800070053796E6305
:1046F000206D616E616765722074797065000500D8
:1047000008000700060010000F0007002000070047
:104710000000200000000600100007000700200035
:10472000070007002000070000002000000006002E
:1047300010003F00070020000700070020003F0096
:10474000060010000700060010000700000010001F
:104750000000000010000000000020000000000029
:1047600020000000000020000000000020000000E9
:104770000000000000000000000000000000000039
:104780000000000000000000000000000000000029
:104790000000000000000000000000000000000019
:1047A0000000000000000000000000000000000009
:1047B00000000000000000000000000000000100F8
:1047C00001000700534D206F75747075742070617F
:1047D00072616D657465720053796E6368726F6E95
:1047E000697A6174696F6E205479706500437963EA
:1047F0006C652054696D65000053796E6368726F53
:104800006E697A6174696F6E205479706573207374
:104810007570706F72746564004D696E696D756D49
:10482000204379636C652054696D650043616C6356
:1048300020616E6420436F70792054696D650000BB
:10484000476574204379636C652054696D65004445
:10485000656C61792054696D650053796E63302011
:104860004379636C652054696D6500534D2D457621
:10487000656E74204D6973736564004379636C657C
:104880002054696D6520546F6F20536D616C6C000E
:1048900053686966742054696D6520546F6F2053A6
:1048A000686F72740000000000000000000000004B
:1048B0000000000000000053796E63204572726FA3
:1048C0007200FF00534D20696E7075742070617224
:1048D000616D657465720053796E6368726F6E699D
:1048E0007A6174696F6E2054797065004379636CE6
:1048F000652054696D65000053796E6368726F6E50
:10490000697A6174696F6E2054797065732073756C
:1049100070706F72746564004D696E696D756D209D
:104920004379636C652054696D650043616C632055
:10493000616E6420436F70792054696D6500004793
:104940006574204379636C652054696D6500446526
:104950006C61792054696D650053796E6330204332
:1049600079636C652054696D6500534D2D457665FE
:104970006E74204D6973736564004379636C6520C0
:1049800054696D6520546F6F20536D616C6C0053DA
:10499000686966742054696D6520546F6F20536890
:1049A0006F727400000000000000000000000000B2
:1049B00000000000000053796E63204572726F7230
:1049C00000FF000000000100030007000F001F00AF
:1049D0003F007F00FF00FF01FF03FF07FF0FFF1FE6
:1049E000FF3FFF7F000000000000030500000405FA
:1049F0000100040505000405000001060100010690
:104A000002000106000002064100040642000406FE
:104A100043000406470004060000060610000706CF
:104A200012000706130007061100090630000906E8
:104A3000310009063200090633000906360009066E
:104A400000000008200000082100000822000008E3
:104A50002300000803000106040001067C4A000848
:104A6000000000206C0500003C020008484C0008D3
:104A70006C0500208C0900004E3A0008110425C284
:104A8000EB0B131621230209130E441B08200413F9
:104A9000A8040215204A1A281A32241A44040A15B6
:104AA000B42814121C062301081A56241A62040A98
:104AB00015C0285A13281A7E241A8A040A15C428F5
:104AC0002402200522071AA6241AAC040A15D828A5
:104AD0005A03281AB4241ABA040A16D9C83B600526
:104AE000781AC2241ACE040A15DA281401602A1A88
:104AF00003F01ADE241AF6040A16E0504A70501326
:104B000014451B0820040A16F0504A70501A262437
:104B10001A3E040A16F45013F02A1A02281A5C24CA
:104B20001A6E040B140405280327FFFF231007192E
:104B3000031AB24C1AB8040B15E003A03B10052869
:104B40001AC4241ACA040A15E4281B08109D19283F
:104B50002ADA4C19040A15E6285A09281AEC241AEC
:104B6000F2040A15F1285A0A281304461B080A04FD
:104B70000A15F628141810231A042B1A1C241A3AA2
:104B8000040A15FC2814F1102A1A02281A74241A8F
:104B900086040B140C05283CF8101B781AC6241A3E
:104BA000CC04221814207D28021108131C051A04B5
:104BB000161AE0241AEC040B1410045014321C29A9
:104BC0001A20781AFE2413C4470C14085C0628AA7D
:104BD000332812480B1508A028031EFFFF43891332
:104BE000100B5353432D446576696365156E2E6132
:104BF0002E25352E313232041A02B3255230482682
:104C00005201120405920201040319A81158092047
:104C1000010170200201700C1A600C1A60B61A169D
:104C20000402121A49D0E9CB2916E91412023A10EB
:104C300014295829204204000D47537562496E64B7
:084C40006578203030300000DF
:04000005080001AD41
:00000001FF
