:020000040800F2
:10000000384F01205D020008D9080008D108000817
:10001000D5080008770800089509000800000000CE
:100020000000000000000000000000009D0100082A
:100030007B08000800000000F9010008DD08000846
:1000400077020008770200087702000877020008AC
:10005000770200087702000877020008770200089C
:10006000770200087702000877020008770200088C
:10007000770200087702000877020008770200087C
:10008000770200087702000877020008770200086C
:10009000770200087702000877020008770200085C
:1000A000770200087702000877020008770200084C
:1000B000770200087702000877020008770200083C
:1000C000770200087702000877020008770200082C
:1000D000770200087702000877020008770200081C
:1000E000770200087702000877020008770200080C
:1000F00077020008770200087702000877020008FC
:1001000077020008770200087702000877020008EB
:1001100077020008770200087702000877020008DB
:1001200077020008770200087702000877020008CB
:10013000770200087D0800087702000877020008AF
:1001400077020008770200087702000877020008AB
:10015000770200087702000877020008770200089B
:10016000770200087702000877020008770200088B
:1001700077020008770200087702000800000000FC
:100180007702000877020008DFF80CD000F0B6FA1A
:1001900000480047876E0008384F01202C4B196833
:1001A0000868B0E8F04F80F30988BFF36F8F4FF015
:1001B000000080F3118870470000000008480068C4
:1001C000006880F308884FF0000080F3148862B65E
:1001D00061B6BFF34F8FBFF36F8F00DF00BF00BF6B
:1001E00008ED00E0DFF80C00016841F470010160E7
:1001F000704700BF88ED00E0EFF30980BFF36F8F19
:10020000134B1A681EF0100F08BF20ED108A20E96A
:10021000F04F106009B44FF0500080F31188BFF325
:100220004F8FBFF36F8F0EF051FF4FF0000080F340
:10023000118809BC19680868B0E8F04F1EF0100F6B
:1002400008BFB0EC108A80F30988BFF36F8F704746
:100250001C000020EFF3058070470000064880472F
:1002600006480047FEE7FEE7FEE7FEE7FEE7FEE79B
:10027000FEE7FEE7FEE7FEE7110900088901000836
:1002800010B5431A934209D28318881803E010F876
:10029000011D03F8011D521EF9D210BD40EA0103F1
:1002A0009B0703D009E008C9121F08C0042AFAD22C
:1002B00003E011F8013B00F8013B521EF9D210BDDA
:1002C000D2B201E000F8012B491EFBD27047002298
:1002D000F6E710B513460A4604461946FFF7F0FF45
:1002E000204610BD30B504460020034600E05B1CEC
:1002F000934203D2E05CCD5C401BF8D030BD30B5FA
:100300000B46014600202022012409E021FA02F5D3
:100310009D4205D303FA02F5491B04FA02F528446D
:10032000151EA2F10102F1DC30BD2DE9F05F05469A
:10033000002092469B4688460646814640241BE0A4
:10034000284641464746224600F0F9F953465A46A8
:10035000C01A914110D311461846224600F0E0F928
:100360002D1A67EB01084F4622460120002100F0BC
:10037000D7F917EB00094E41201EA4F10104DFDC80
:10038000484631462A464346BDE8F09F2DE9FE4FD8
:10039000804681EA0300C00F0C46009021F0004126
:1003A00023F00045B8EB0200A94105D240462146A2
:1003B00090461C460B46024623F00040104347D0AF
:1003C000270DC7F30A00C3F30A510290401A0190A7
:1003D00040286BDAC3F3130040F4801B0098924668
:1003E00020B10023D2EB030A63EB0B0B01985946B3
:1003F000C0F14002504600F093F906460D465046C3
:100400005946019A00F0ABF910EB08006141002455
:1004100087EA115284EAE7731A4340D0009A62B324
:10042000019A012A4FEA075215DC001B61EB020119
:100430004FF0004202EA0752CDE90042001C41F5AC
:10044000801132462B4600F0ABF903B0BDE8F08FC7
:1004500040462146F9E7001B61EB0201001C41F513
:10046000801300185B412018A2F5001747EB030129
:1004700040EAD570B6196D4111E06D084FEA3606B5
:1004800045EAC0754FEA0752001B61EB0201001CF0
:1004900041F5801149084FEA3000001951413246B8
:1004A0002B4603B0BDE8F04F00F06BB90098012275
:1004B00040000023D0EB020263EBE073009821467A
:1004C0004FEAE074B8EB000061EB0401E9E783F068
:1004D00000435BE781F0004158E72DE9FE4F81EAD8
:1004E000030404F0004421F0004100944FF0000B9D
:1004F00023F0004350EA01045ED052EA03045BD0CB
:10050000C3F30A54C1F30A552C44A4F2F334019402
:10051000A0FB0254C1F3130141F48011C3F3130390
:1005200043F4801301FB024400FB034E840A970A44
:1005300044EA815447EA8357A4FB076802958D0A71
:1005400005FB07854FEA932C04FB0C542705029DFD
:100550004FEA065847EA1637B5EB08056EEB070C6D
:10056000870E920E47EA811742EA8312A7FB020127
:10057000B6EB0B0164EB00042B0D43EA0C335E1861
:1005800044EB1C50DA465146E7FB0201C5F3130465
:100590004FEA0B3343EA14534FEA0432019C43EA17
:1005A0000603A4F10C040294009CCDE900B400F011
:1005B000F7F803B0BDE8F08F00200146F9E72DE918
:1005C000F04D81EA030404F0004B21F0004514468D
:1005D0004FF0000A23F0004150EA050220D054EA0F
:1005E00001021DD0C5F30A570246C5F31303C1F338
:1005F0001300C1F30A5640F4801543F48013A7EBAF
:100600000608101BD64608F2FD3873EB050002D32E
:1006100008F1010801E092185B41B8F1000F03DA1C
:1006200000200146BDE8F08D00204FF48011064601
:1006300084460EE0171B73EB050705D3121B63EB13
:10064000050306434CEA010C49084FEA30009218B2
:100650005B4150EA0107EDD152EA030012D082EA71
:10066000040083EA0501084305D0101BAB4106D204
:100670000122002306E000224FF0004302E06FF069
:10068000010253101AEB06004CEB085110EB0A0064
:1006900041EB0B01BDE8F04D00F073B8C1F30A5215
:1006A000C1F3130140F2FF3341F480119A4202DAA0
:1006B00000200146704740F233439A42A2F233428F
:1006C00002DC524200F03BB800F02AB830B5041EFC
:1006D00071F1000404DB4FF00044404264EB01017F
:1006E000141E73F1000405DB1C464FF00043524218
:1006F00063EB0403994208BF904230BD064C074D9E
:1007000006E0E06840F0010394E8070098471034E1
:10071000AC42F6D3FFF73CFD1C0501083C0501087F
:10072000202A04DB203A00FA02F1002070479140B1
:10073000C2F1200320FA03F3194390407047202AA6
:1007400004DB203A21FA02F00021704721FA02F37B
:10075000D040C2F120029140084319467047202A38
:1007600006DBCB17203A41FA02F043EAE07306E0D9
:1007700041FA02F3D040C2F12002914008431946E9
:10078000704710B5141E73F1000408DA401C41F1E3
:10079000000192185B411A4301D120F0010010BD05
:1007A0002DE9F04D92469B4611B1B1FA81F202E07B
:1007B000B0FA80F220329046FFF7B2FF04460F46AF
:1007C00040EA0A0041EA0B0153465A46084313D057
:1007D000114653EA010019D0C8F140025046FFF714
:1007E000AEFF05460E46504659464246FFF798FF73
:1007F000084305D0012004E020463946BDE8F08DCD
:100800000020054346EAE0762C4337430A98630507
:10081000E40AA0EB08000022FD0A44EA47540A302B
:1008200002D500200146E9E7010510196941DDE91B
:10083000084500196941BDE8F04DA2E730B58C18B4
:1008400010F8012B12F00F0301D110F8013B12092F
:1008500006D110F8012B03E010F8015B01F8015BF1
:100860005B1EF9D101E001F8013B521EFBD1A14210
:10087000E6D3002030BD00BFFEE7704708B500207A
:100880000090104803F000FA012804D169460E4890
:1008900000680EF09BFE0B4803F0EAF909480A30A5
:1008A00003F0E6F9009858B100BF009838B14FF056
:1008B000805006490860BFF34F8FBFF36F8F00BFB2
:1008C00008BD000006050400B800002004ED00E0AB
:1008D00000BFFEE700BFFEE77047000010B500BF95
:1008E000502080F31188BFF34F8FBFF36F8F00BF8D
:1008F0000FF05EF918B14FF080500449086000BF56
:10090000002080F3118800BF10BD000004ED00E05E
:1009100008B51C48006840F470001A4908601A487D
:10092000006840F001001849086017480830006866
:1009300040F080001449083108600020009002E077
:100940000098401C00904CF2503100988842F7D338
:1009500000200D49083108600B4800680B49084029
:10096000094908600A48091D0860081F006820F44A
:100970008020091F0860002003490C31086009F03D
:100980000DFA08BD88ED00E000380240FFFFF6FEDA
:100990001030002400BFFEE70FB4054B10B503A9CB
:1009A000044A029800F0DAF810BC5DF814FB00006D
:1009B000A94C00089001002002E008C8121F08C1DD
:1009C000002AFAD170477047002001E001C1121FD0
:1009D000002AFBD1704700002DE9FF5F82B00021A3
:1009E000DDE90430020DDDF840B0034318D044F6D1
:1009F0001050A2F2FF3242431514119801281FD063
:100A0000A5EB0B00401C5FEA000A4FF000064E4FBA
:100A1000DFF83891B046504615D5CAF1000413E00E
:100A2000119801244AA3012801D16FEA0B01029811
:100A3000119AC0E90031C0E9024206B0BDE8F09F5A
:100A4000CBF10000DFE704460021404A491842EBA1
:100A50000450CDE9001012E0E00707D032463B46D3
:100A600040464946FFF739FD8046894632463B46B7
:100A700010461946FFF731FD06460F466410002C5C
:100A8000EAD1DDE90401DDE90023BAF1000F06DA5D
:100A9000FFF723FD42464B46FFF71FFD05E0FFF73A
:100AA0008EFD42464B46FFF78AFD04460E46002265
:100AB000284BFFF70BFE03D84FF0FF30014607E04D
:100AC0000022254B20463146FFF760FCFFF7E6FD8C
:100AD000102409E0002C0ADB0A220023FFF725FC82
:100AE000039B30321A55641E50EA0102F2D1641C95
:100AF000039AC4F111031444119A012A03D001226C
:100B000008430DD10AE0084304D000204FF0110B38
:100B1000119072E7A3EB0B056D1E0DE05B4504DD44
:100B20004FF0000205F1010504E003DA4FF0000286
:100B3000A5F10105002AECD002981199C0E9023113
:100B4000C0E9004579E70000000014400000F03FD4
:100B5000300000000000F0430000E03F2DE9FF4FAF
:100B600095B09B468946064600250FE2252877D199
:100B700000242746F84A0121059400E0044316F8B2
:100B8000013F203B01FA03F01042F7D130782A28C8
:100B900011D06FF02F033078A0F13002092A16D857
:100BA000059A44F0020402EB820203EB4202104475
:100BB000761C0590EFE759F8042B0592002A03DA1A
:100BC000504244F40054059044F00204761C3078FE
:100BD0002E2816D116F8010F44F004042A280DD04F
:100BE0006FF02F023078A0F13003092B09D807EB02
:100BF000870302EB4303C718761CF3E759F8047B1D
:100C0000761C30786C280FD006DC4C2817D068286A
:100C10000DD06A2814D104E0742810D07A280FD19E
:100C20000DE044F400140AE044F4801401E044F4BC
:100C300040147278824202D104F58014761C761C2E
:100C4000307866280BD013DC582877D009DC0028D0
:100C500075D04528F6D04628F4D047281AD19DE112
:100C600018E0632835D0642879D0652812D195E141
:100C7000702873D008DC6728F1D069286FD06E28FF
:100C80000DD06F2806D1B5E073282CD0752875D00B
:100C9000782874D05A46179990476D1C75E1C4F3B3
:100CA0000250022809D003280DD0D9F800100428DA
:100CB0000DD00D6009F1040967E1D9F80010EA17B9
:100CC000C1E90052F6E7D9F800100D80F2E70D7087
:100CD000F0E719F8041B8DF8001000208DF80100D2
:100CE000EA46012003E059F804AB4FF0FF306107FA
:100CF0004FF0000102D40DE008F101018846B9422D
:100D00000FDA8045F8DB1AF808100029F4D108E062
:100D100008F1010188468142FADB1AF8081000291F
:100D2000F6D105985B46A0EB080721463846179A8E
:100D300000F094FA284400EB080507E04DE029E1B3
:100D40000DE01AF8010B5A4617999047B8F10108BF
:100D5000F7D25B4621463846179A13E142E00A2251
:100D60000092C4F302524FF0000A022A08D059F848
:100D700004CB032A4FEAEC710AD00DE029E02AE007
:100D800009F1070121F00702F2E802C1914609E0EA
:100D90000FFA8CFC4FEAEC71042A03D14FFA8CFC59
:100DA0004FEAEC71002907DA0A460021DCF1000C59
:100DB00061EB02012D2202E0220504D52B228DF8E1
:100DC0000420012203E0E20701D02022F7E7904649
:100DD00059E00A2102E010220DE010214FF0000A34
:100DE00000910BE010224FF0000A44F004040827A1
:100DF000009203E008224FF0000A0092C4F302526E
:100E0000022A05D059F804CB0021032A08D009E0B2
:100E100009F1070121F00702F2E802C1914605E05D
:100E20001FFA8CFC042A01D10CF0FF0C4FF00008D3
:100E3000220728D5702806D0009B83F0100353EAC0
:100E40000A0305D00EE040228DF80420012208E0BC
:100E50005CEA010206D030228DF804208DF80500EE
:100E600002229046009B83F0080353EA0A030AD14A
:100E70005CEA010201D1620705D530228DF8042019
:100E80004FF001087F1E582804D034A003900EA80C
:100E900002900DE036A0F9E753466046009AFFF74E
:100EA00044FA84460398825C0298401E02900270C5
:100EB0005CEA0100F0D1029806A9081A00F1200AA4
:100EC000600702D524F4803400E00127574502DD95
:100ED000A7EB0A0000E0002000EB0A010090059853
:100EE0004144401A0590E00306D45B462146179A18
:100EF000059800F0B3F90544002706E001A85A461A
:100F0000C05D179990476D1C7F1C4745F6DBE003D9
:100F10000CD55B462146179A059800F09FF90544C9
:100F200004E030205A46179990476D1C0099481EDE
:100F300000900029F5DC08E0029802995A460078F2
:100F4000491C0291179990476D1CBAF10001AAF152
:100F5000010AF1DC65E1000009280100303132337B
:100F600034353637383961626364656600000000E5
:100F700030313233343536373839414243444546CF
:100F80000000000000F058F90544761C3078002875
:100F90007FF4ECAD19B02846BDE8F08F620700D4AD
:100FA000062709F1070222F0070CFCE80223E146BC
:100FB00003F000485FEA080C02D00FF2702C0DE03D
:100FC0005FEA045C02D50FF2682C07E05FEAC47C9C
:100FD00002D00FF2602C01E0AFF2700C4FF0FF383E
:100FE00023F00043CDF850C065280CD006DC45281E
:100FF00009D046281DD047283DD13DE0662818D0AD
:1010000067287ED138E00021112F01DB112000E09C
:10101000781CCDE9000106A90EA8FFF7DDFCDDE98B
:101020000F010E9A03910021009207F1010A049129
:101030004DE04FF000400097CDE9011006A90EA841
:10104000FFF7CAFCDDE90F0203920E9B1199002203
:10105000DDF80CA00093049211B9791C00EB010A91
:10106000B7EB0A0004D4C0F1FF3007F1010A049085
:10107000AAEB0700019044E0012F00DA01270021CC
:10108000112F01DD112000E03846CDE9000106A94D
:101090000EA8FFF7A1FCDDE90F010E9A03910021D4
:1010A00004910092BA4621070CD40399514500DA05
:1010B0008A46BAF1010F05DD009AAAF10101515CDF
:1010C000302908D0B84202DA10F1040F06DA012103
:1010D000CDE9011015E0AAF10101E9E7002805DCDE
:1010E000049901440491AAEB000102E0411C51451E
:1010F00000DD8A460499401A401C01904FF00040E0
:101100000290200704D40198504501DBCDF80480FB
:1011100000208DF84F0002980DF14F07B0F1004FFD
:1011200025D02B200E9002984FF0020800280CDAF0
:10113000404202902D200E9007E00A210298FFF70E
:10114000DEF83031029007F8011DB8F10001A8F176
:101150000108F2DC02980028EFD1791E0E98087081
:10116000307800F0200040F0450007F8020D12A88A
:10117000C01B00F107081498007800B1012000EBB3
:101180000A01019801EBE07105984144401A401EA4
:101190000590E00306D45B462146179A059800F0B7
:1011A0005DF805441498007818B15A46179990478D
:1011B0006D1CE00324D55B462146179A059800F084
:1011C0004DF805441CE00498002807DBDDE9030125
:1011D000884203DD0098405C179901E017993020A0
:1011E0005A469047049805F10105401C0490019867
:1011F000401E019004D12E205A46179990476D1C2D
:10120000BAF10001AAF1010ADDDC05E017F8010BD3
:101210005A46179990476D1CB8F10001A8F10108D2
:10122000F4DC5B462146179A0598ABE62D000000DA
:101230002B000000200000002DE9F04104460025AD
:101240001E461746880404D405E039462020B047DE
:101250006D1C641EF9D52846BDE8F0812DE9F041EA
:10126000044600251E469046C80301D5302700E0FD
:101270002027880404D505E041463846B0476D1C58
:10128000641EF9D52846BDE8F08100002DE9F04143
:1012900005460E46002434E008F053FB07461B4881
:1012A00000EB0410006840BB184800EB0410056018
:1012B000384608F06CFB0020144901EB041148602B
:1012C00000BF00BF114901EB04110881287800F02C
:1012D000F000102804D10EB1012002E0002000E04F
:1012E00001200A4901EB041148810020074901EB64
:1012F000041188812046BDE8F081384608F047FB9C
:10130000641C042CC8DB4FF0FF30F4E74CBD002018
:101310001CB50020012103464FF48272CDE9001074
:1013200002A104480EF0F8FB1CBD0000494E4954D0
:10133000000000005551000800B589B041F21900C5
:1013400008F024F940F6014008F020F940F6014089
:1013500008F01CF94FF40073022200213F4803F00B
:101360005FFD4FF40073002202213C4803F031FD81
:101370004FF400720921394803F0F8FC4FF48073F0
:1013800002220021354803F04BFD4FF48073002208
:101390000221324803F01DFD4FF4807209212F48CD
:1013A00003F0E4FC2E4800F0C3FB00208DF81C0085
:1013B0008DF81D008DF81E008DF81F008DF820009F
:1013C00001208DF8210000208DF818008DF81900FB
:1013D00006208DF81A0005208DF81B004FF4FA70D6
:1013E0007D2813D0FA280DD0B0F5FA7F06D0B0F5DD
:1013F0007A7F0FD10320ADF822000BE00620ADF874
:10140000220007E00C20ADF8220003E01820ADF820
:10141000220000BF00BF06A9114800F02BFC0020ED
:10142000ADF80E00ADF810000120ADF8120000205C
:10143000ADF80400ADF80600ADF80800ADF80A00FC
:10144000ADF80C0001208DF8140001A800F08AFB13
:101450000221034800F09FFC09B000BD00040240D7
:101460000064004000B589B041F2190008F08EF820
:1014700041F21A0008F08AF840F6014008F086F8B8
:1014800040F6014008F082F84023022200213E4845
:1014900003F0C6FC4023002202213B4803F099FCE4
:1014A00040220921384803F061FC20230222002158
:1014B000354803F0B5FC202300220221324803F016
:1014C00088FC20220921304803F050FC2F4800F00E
:1014D0002FFB00208DF81C008DF81D008DF81E00DC
:1014E0008DF81F008DF8200001208DF821000020CC
:1014F0008DF818008DF8190006208DF81A000520C7
:101500008DF81B004FF4FA707D2813D0FA280DD007
:10151000B0F5FA7F06D0B0F57A7F0FD10320ADF891
:1015200022000BE00620ADF8220007E00C20ADF809
:10153000220003E01820ADF8220000BF00BF06A97A
:10154000124800F097FB0F20ADF80E000020ADF818
:1015500010000120ADF812000020ADF80400ADF835
:101560000600ADF80800ADF80A000120ADF80C0047
:101570008DF8140001A800F0F5FA1021034800F0DE
:101580000AFC09B000BD00000004024000680040F1
:1015900010B540F6044007F0F9FF80230022114601
:1015A0003F4803F016FC4FF48073002211463C487C
:1015B00003F00FFC4FF4007300221146384803F08B
:1015C00008FC4FF4806300221146354803F001FC0B
:1015D0004FF4006300221146314803F0FAFB40F655
:1015E000034007F0D3FF4FF48053002211462D48EB
:1015F00003F0EFFB4FF4005300221146294803F09B
:10160000E8FB40F6044007F0C1FF04230222012159
:10161000234803F0DEFB082302220121204803F0C7
:10162000D8FB1023022201211D4803F0D2FB042124
:101630001B4803F0CCFB0821194803F0C8FB10211C
:10164000174803F0C4FB4FF4406007F09FFF0823E6
:1016500002220121144803F0BCFB102302220121C5
:10166000114803F0B6FB2023022201210E4803F0AB
:10167000B0FB4023022201210B4803F0AAFB082102
:10168000094803F0A2FB1021074803F09EFB20212C
:10169000054803F09AFB4021034803F096FB10BD78
:1016A00000100240000C02400000024010B506F09D
:1016B0005BFBFFF741FEFFF7D5FEFFF769FF00F088
:1016C0000BF800F067F800F0BDF800F01FF900F02B
:1016D0007BF900F0D5F910BD10B54FF4406007F06C
:1016E00055FF4FF4406007F051FF41F2041007F03E
:1016F0004DFF4FF400720721244803F037FB4FF4ED
:1017000080620721214803F031FB4FF4007301226E
:1017100002211E4803F05DFB4FF4007302220021FA
:101720001A4803F07DFB4FF4806301220221174821
:1017300003F04FFB4FF4806302220021134803F0B3
:101740006FFB13480DF058F84FF4E13110480CF0DE
:10175000DBFF00210E480DF0DEF800210C480DF0F3
:10176000FAF800210A480DF0E6F8042108480DF0C7
:10177000DAF8082106480DF0E6F840F20531044891
:101780000DF0BCF802480DF0A5F810BD00000240B5
:101790000010014010B540F6034007F0F7FE40F698
:1017A000034007F0F3FE41F2110007F0EFFE2022A4
:1017B0000721224803F0DAFA402207211F4803F0EC
:1017C000D5FA2023012202211C4803F002FB20232A
:1017D00002220021194803F023FB402301220221A9
:1017E000164803F0F6FA402302220021134803F0C2
:1017F00017FB13480DF000F84FF4E13110480CF0DE
:1018000083FF00210E480DF086F800210C480DF0F2
:10181000A2F800210A480DF08EF8042108480DF0C6
:1018200082F8082106480DF08EF840F20531044890
:101830000DF064F802480DF04DF810BD000C0240A8
:101840000044004010B540F6034007F09FFE40F60C
:10185000014007F09BFE41F2120007F097FE4FF4A3
:1018600080620721254803F081FA4FF400720721B6
:10187000234803F07BFA4FF48063012202211F48C2
:1018800003F0A7FA4FF48063022200211B4803F003
:10189000C7FA4FF4007301220221194803F099FAA4
:1018A0004FF4007302220021154803F0B9FA1548DD
:1018B0000CF0A2FF144913480CF026FF4FF480618E
:1018C00010480DF028F800210E480DF044F84FF4B0
:1018D00000510C480DF02FF804210A480DF023F8B0
:1018E000082108480DF02FF840F2053105480DF0A9
:1018F00005F804480CF0EEFF10BD000000040240A3
:10190000000C024000480040A086010010B540F6DF
:10191000024007F03BFE40F6024007F037FE41F27E
:10192000130007F033FE4FF480620821244803F0CF
:101930001DFA4FF400620821214803F017FA4FF412
:101940008063012202211E4803F043FA4FF48063B2
:10195000022200211A4803F063FA4FF400630122C7
:101960000221174803F035FA4FF4006302220021E8
:10197000134803F055FA13480CF03EFF4FF4E131E1
:1019800010480CF0C1FE00210E480CF0C4FF0021ED
:101990000C480CF0E0FF00210A480CF0CCFF0421B9
:1019A00008480CF0C0FF082106480CF0CCFF40F2BC
:1019B000053104480CF0A2FF02480CF08BFF10BD6B
:1019C00000080240004C004010B540F6034007F00C
:1019D000DDFD40F6024007F0D9FD41F2140007F0AA
:1019E000D5FD4FF480520821224803F0BFF90422AC
:1019F0000821214803F0BAF94FF480530122022153
:101A00001C4803F0E6F92023022200211A4803F0C3
:101A100007FA042301220221174803F0DAF904230C
:101A200002220021144803F0FBF914480CF0E4FEF4
:101A30004FF4E13111480CF067FE00210F480CF023
:101A40006AFF00210D480CF086FF00210B480CF0C6
:101A500072FF042109480CF066FF082107480CF0CA
:101A600072FF40F2053105480CF048FF03480CF0C6
:101A700031FF10BD00080240000C02400050004041
:101A800010B540F6024007F081FD40F6024007F035
:101A90007DFD41F2051007F079FD40220821224822
:101AA00003F064F9802208211F4803F05FF9402306
:101AB000012202211C4803F08CF94023022200215C
:101AC000194803F0ADF9802301220221164803F0E2
:101AD00080F9802302220021134803F0A1F9134862
:101AE0000CF08AFE4FF4E13110480CF00DFE00219D
:101AF0000E480CF010FF00210C480CF02CFF0021C8
:101B00000A480CF018FF042108480CF00CFF0821CB
:101B100006480CF018FF40F2053104480CF0EEFEC8
:101B200002480CF0D7FE10BD00080240001401402E
:101B300010B504460A48844208D140F6190007F05F
:101B400049FD40F6190007F033FD07E040F61A00A2
:101B500007F040FD40F61A0007F02AFD10BD000016
:101B60000064004010B50021837A012202FA03F1DB
:101B70003E4A126842F001023C4B1A603B4A1C325A
:101B800012688A43394B1C331A60C289DAB9374A62
:101B90000C3212688A43354B0C331A60C288344BBE
:101BA00003EA024243881A434389304C403444F8E4
:101BB000332082882E4B03EA024203881A4343896A
:101BC00004EBC3035A60C289012A1BD1274A0C3295
:101BD00012680A43254B0C331A600288244B03EA2F
:101BE000024243881A434389204C403444F833204E
:101BF00082881F4B03EA0242C3881A43438904EBDD
:101C0000C3035A6082893AB9184A121D12688A437E
:101C1000164B1B1D1A6006E0144A121D12680A4377
:101C2000124B1B1D1A6002893AB9104A143212680D
:101C30008A430E4B14331A6006E00C4A14321268C1
:101C40000A430A4B14331A60027C012A06D1074A60
:101C50001C3212680A43054B1C331A60034A12688F
:101C600022F00102014B1A6010BD00000066004026
:101C70000000FFFF70B502464FF6FF7300201468A6
:101C800024F002041460146844F00104146000E0BD
:101C90005B1E546804F001040CB9002BF8D15468A1
:101CA00004F001040CB9002074E00C784FF04045BA
:101CB00005EA84744D784FF0407606EA05652C43BA
:101CC0008D784FF4702606EA05452C43CD784FF405
:101CD000E00606EA05552C434D896D1EC5F309053E
:101CE0002C43D4610C79012C04D1146844F0800495
:101CF000146003E0146824F0800414604C79012C13
:101D000004D1146844F04004146003E0146824F023
:101D1000400414608C79012C04D1146844F0200430
:101D2000146003E0146824F020041460CC79012CC2
:101D300004D1146844F01004146003E0146824F023
:101D4000100414600C7A012C04D1146844F00804C7
:101D5000146003E0146824F0080414604C7A012C29
:101D600004D1146844F00404146003E0146824F0FF
:101D700004041460146824F0010414604FF6FF7327
:101D800000E05B1E546804F001040CB1002BF8D194
:101D900003B1012070BD42690A43426170470000EF
:101DA00070B505460E4600BF2DB900BF0CA0FEF76A
:101DB000F3FD00BF70BD00BF2C6A00BF00BF6CB157
:101DC000607908280AD100BF00BF3068E169884205
:101DD00004D100BF00BF284600F0DAF900BFE9E7F0
:101DE0006E6574696620213D204E554C4C00000004
:101DF0007CB5064600BF2EB900BF44A0FEF7CCFD5F
:101E000000BF7CBD00BF346A00BF2CB900BF46A034
:101E1000FEF7C2FD00BFF4E700BF00BF00BF002017
:101E20006082A06A401C90B100BF00BFA06A1E3053
:101E30003C21B0FBF1F5B5F5803F01D34FF6FF75BE
:101E4000A582A08A08B90120A08200BF00BFE06A75
:101E5000401CA0B100BF00BFE06A1E303C21B0FBB7
:101E6000F1F5B5F5803F01D34FF6FF7565816089C7
:101E700008B90120608100BF00BF6089E081206B4C
:101E8000401CA0B100BF00BF206B1E303C21B0FB46
:101E9000F1F5B5F5803F01D34FF6FF75A581A08917
:101EA00008B90120A08100BF00BFA08920826089FD
:101EB000A189884204DBA089002801DD002060811F
:101EC000E07910B1206A01900FE0207F7F2802DCCA
:101ED000FF21019108E0C02803DB6FF07F410191F1
:101EE00002E04FF6FF71019100BF606A009000BFF1
:101EF00000BF0A21204601F0BFF86B4601AA04F199
:101F00001C01304605F098FE00BF7AE764686370F4
:101F10005F62696E643A206E6574696620213D20B7
:101F20004E554C4C00000000646863705F62696E3F
:101F3000643A206468637020213D204E554C4C006B
:101F40002DE9F0410646346A00BF00BF0821204653
:101F500001F092F8002204F11C01304602F028FB47
:101F600005460DB100BF00BFA079FF2802DAA079B5
:101F7000401CA0714FF4FA7707F2F310394690FB3A
:101F8000F1F0208100BF00BFBDE8F08170B500BF57
:101F900000BF1B4805682FE02C6AFCB16079E8B1EE
:101FA000A08A78B1608A401C80B26082A18A88428F
:101FB00008D100BF00BF284600F088FE284601F087
:101FC00063F818E0208A50B1218A481E2082012936
:101FD00005D100BF00BF284601F00DF90BE0E089F4
:101FE00048B1E189481EE081012904D100BF00BF4A
:101FF000284601F0DBF82D68002DCDD170BD000022
:10200000040100202DE9F05F07460D4616469A466A
:1020100000BF3FB900BF40A0FEF7BEFC00BF0020DC
:10202000BDE8F09F00BF00BF35B900BF42A0FEF77A
:10203000B3FC00BF0020F3E700BF4FF420724FF461
:102040009A71362005F072FF8146B9F1000F03D175
:1020500000BF00BF0020E3E700BF00BF032E02D196
:102060006879032809D1A87920B93B480068401C49
:102070003949086038480068286000BF00BFD9F8B7
:1020800004404FF49A712046FEF721F90120207098
:10209000607097F82C00A070286804F0E3F8606086
:1020A000082E0BD0042E09D0072E07D0032E07D1FF
:1020B0006879052802D06879042801D17868E06041
:1020C0004FF000080BE007F1260010F8081004F1AB
:1020D0001C0000F8081008F101001FFA80F8B8F1A0
:1020E000060FF0D31D48C4F8EC000123352204F19B
:1020F000F001002000F031FA8346324604F1F0018D
:10210000584600F036FA8346BAF1000F01D0AAF81B
:1021100000B0484684E70000646863705F637265DE
:102120006174655F6D73673A206E6574696620211E
:102130003D204E554C4C0000646863705F637265CF
:102140006174655F6D73673A206468637020213D38
:10215000204E554C4C0000008001002063825363E8
:1021600010B500BF00BF08480078401E064908703F
:102170000846007830B9054800680CF053F8002094
:102180000249086010BD00007C0100207801002099
:102190002DE9FE4F0646346A00BF00BF0C212046E1
:1021A00000F06AFF02AB042221463046FFF72AFF07
:1021B000054675B3D5F804800423322208F1F001F6
:1021C000BDF8080000F0C9F90290E06904F04AF88F
:1021D0008246524608F1F001BDF8080000F0D1F93E
:1021E00002902A4608F1F001BDF8080000F0EFF96E
:1021F00014484323144A2946CDE900601348006877
:102200000CF07EF90746284606F06CF900BF00BFC7
:1022100004E0FFE700BF00BF4FF0FF37A079FF28C1
:1022200002DAA079401CA07142F2107909F2F31091
:102230004FF4FA7190FBF1F0208100BF00BF3846E7
:10224000BDE8FE8F000401080404010878010020A5
:102250002DE9FE4F07463C6A4FF0000A00BF00BF61
:102260000020E0610621204600F006FF02AB0122BB
:1022700021463846FFF7C6FE0546002D4AD06E6857
:1022800000BF00BF0223392206F1F001BDF80800AB
:1022900000F063F90290BA8C06F1F001BDF8080075
:1022A00000F088F902900323372206F1F001BDF80F
:1022B000080000F052F90290D0460DE0274810F8CF
:1022C000082006F1F001BDF8080000F052F9029074
:1022D00008F1010000F0FF08B8F1030FEED32A4621
:1022E00006F1F001BDF8080000F071F900BF00BF71
:1022F0001B4843231B4A2946CDE900701A48006851
:102300000CF0FEF800BF00BF284606F0EBF800BF57
:1023100000BF01E000BF00BFA079FF2802DAA0796A
:10232000401CA071A079062803DAA1790120884019
:1023300000E03C2000EB4001C1EBC0104FF6FF7104
:1023400001EAC00909F2F3104FF4FA7190FBF1F0C1
:10235000208100BF00BF5046BDE8FE8F7401002001
:1023600000040108040401087801002070B50D483C
:10237000056814E02C6A8CB12089012803DD2089CE
:10238000401E20810AE02089012807D12089401EB3
:10239000208100BF00BF284600F055FF2D68002DAA
:1023A000E8D170BD0401002070B505460E462C6AC8
:1023B0000020206260621A48C07810B11948C068D5
:1023C000A0621748007918B116480069E06202E07F
:1023D000A06A4008E0621248407918B1114840698B
:1023E000206304E0A06AC0EBC000C008206330692D
:1023F000E0610B48807938B10A49886903F032FFFF
:1024000020620120E07101E00020E0710448C07901
:1024100020B10449C86903F025FF606270BD000067
:102420006C010020284A012070B50446256A00BFCF
:1024300000BF0C21284600F01FFE054B1A4611462E
:10244000204605F0F9FB2046FFF702FF70BD0000B3
:102450000004010870B505460E462C6A00BF00BF97
:102460000B48807880B1002020810A49886803F0F9
:10247000F9FEA06100BF00BF3069E06100BF00BF8E
:10248000284600F013FD01E000BF00BF70BD000052
:102490006C010020284A012010B51848007828BB9C
:1024A00000BF00BF0BF05EFE1549086008460068DB
:1024B00010B94FF0FF3010BD11480068407A40F06D
:1024C00020000F490968487244220E490C480068F0
:1024D0000BF026FC43220B49094800680BF094FCE2
:1024E00000220949064800680BF07EFE0348007888
:1024F000401C024908700020DDE700007C0100203C
:102500007801002000040108712B000870B5054611
:102510002C6A04B970BD6079042809D003DC80B14D
:1025200003280FD107E0052803D00A280AD101E0CB
:1025300000BF00BF00BF0020A071284600F084FA51
:1025400008E007E000BF00BF0020A0712846FFF7A9
:102550007FFE00BF00BF00BFDCE730B500BF00BF9B
:102560000446451CA8B20A550446451CA8B20B55A2
:1025700030BD10B500BF00BF0346441CA0B2CA5412
:1025800010BD30B500BF00BF150E0346441CA0B2FD
:10259000CD54C2F307450346441CA0B2CD54C2F348
:1025A00007250346441CA0B2CD540346441CA0B2E8
:1025B000CA5430BD30B500BF00BF150A0346441CE5
:1025C000A0B2CD540346441CA0B2CA5430BD70B56D
:1025D00004460D461646FF222046611C8CB22A5442
:1025E00004E000222046611C8CB22A54442C02D301
:1025F00004F0030008B1442CF3D304F1F00081B2DD
:10260000304605F0EBFF70BD2DE9F04F8BB08146F1
:10261000002006900590C948002101604160B9F88A
:102620000A002C2803D2881E0BB0BDE8F08FD9F821
:10263000040004904FF0F00AB9F80800079000BFBA
:102640004C46CDF820A00AE06089AAEB00001FFAF2
:1026500080FA61890798401A80B20790246814B103
:1026600060895045F0DD14B96FF00100DCE7554694
:102670000798099060680A9024E10A98405D0390E9
:1026800000274FF0FF38A81C1FFA80FBAB4501DA8A
:10269000B81EC9E76189681C814203DD691C0A987C
:1026A000465C07E0206818B120684068007800E0C8
:1026B0000020064637460398342834D007DC78B12A
:1026C000012811D0032819D0332866D121E03528FC
:1026D0003BD0362843D03A284BD03B285DD152E03E
:1026E0000020064607465EE000BF042E02D06FF0D1
:1026F000050099E700BF4FF0060854E0042700BF2B
:10270000BE4202DA6FF005008EE700BF4FF0070807
:1027100049E000BF042E02D06FF0050084E700BF3F
:102720004FF003083FE000BF012E02D06FF005001C
:102730007AE700BF00BF0898F02802D06FF00500CC
:1027400072E700BF4FF000082DE000BF012E02D05D
:102750006FF0050068E700BF4FF0010823E000BFFD
:10276000042E02D06FF005005EE700BF4FF00208B4
:1027700019E000BF042E02D06FF0050054E700BF3F
:102780004FF004080FE000BF042E02D06FF00500E8
:102790004AE700BF4FF0050805E0002700BF00BF73
:1027A00000BF00BF00BF00BF039810B9681C85B20E
:1027B0006CE0A819801CB0F5803F02DB6FF00100CF
:1027C00032E7A819801C85B2002F5FDD002002903F
:1027D00000BF00BF00BF594810F80800B0BB042F6D
:1027E00001DA384600E0042001905B4602A9204649
:1027F000019A05F011FD01460198814202D06FF067
:10280000010011E7042F27DD00BFF91707EB9171D5
:102810008910A7EB810111B16FF0050004E700BF3B
:102820000120464901F80800029803F01BFD4449C5
:1028300041F82800381FC7B20BF1040080B20090A5
:102840000098584503DA6FF00100EDE61DE0DDF871
:1028500000B008F10108BCE7042F04D1029803F08E
:1028600001FD029009E000BF012F02D06FF00500CA
:10287000DAE600BF9DF80800029001202F4901F818
:1028800008002F49029841F8280000BF6089A8423B
:1028900017DC6089281A85B261890998401A80B2CC
:1028A00009900998854209DA246800BF14B96FF0CD
:1028B0000500B9E600BF60680A9002E06FF0010011
:1028C000B2E600BF3CB10998854204DA0A98405D3F
:1028D000FF287FF4D2AE19480078D0B118490868B3
:1028E0000021164A1170012803D10121069100BF71
:1028F0000EE0022803D10121059100BF08E0032862
:1029000004D101210591069100BF01E000BF00BF85
:1029100000BF069830B1002006904FF06C0AEC2002
:1029200007908DE6059830B1002005904FF02C0AF5
:102930006C20079084E6002076E600006C01002001
:10294000284A01202DE9FC4707463C6A00BF00BF2A
:102950000421204600F090FB01AB032221463846BB
:10296000FFF750FB0546002D44D06E680223392244
:1029700006F1F001BDF80400FFF7EFFD0190BA8CFD
:1029800006F1F001BDF80400FFF714FE01900323E7
:10299000372206F1F001BDF80400FFF7DEFD0190DB
:1029A0004FF000080DE0254810F8082006F1F0016E
:1029B000BDF80400FFF7DDFD019008F1010000F013
:1029C000FF08B8F1030FEED32A4606F1F001BDF877
:1029D0000400FFF7FCFD4323194A294619480097D4
:1029E00000680BF0FFFC8146284605F07BFD00BF28
:1029F00000BF03E000BF00BF4FF0FF39A079FF2800
:102A000002DAA079401CA071A0790A2805DAA07921
:102A10004FF47A7110FB01F001E042F210701FFADE
:102A200080FA0AF2F3104FF4FA7190FBF1F0208172
:102A300000BF00BF4846BDE8FC87000074010020CD
:102A400004040108780100202DE9FC5F8046D8F8D5
:102A5000204000BF00BF0321204600F00DFB01AB6A
:102A6000032221464046FFF7CDFA0646002E56D0F7
:102A700075680223392205F1F001BDF80400FFF763
:102A80006CFD01904FF4107205F1F001BDF80400E7
:102A9000FFF790FD01900423322205F1F001BDF80B
:102AA0000400FFF75AFD0190E06903F0DBFB834669
:102AB0005A4605F1F001BDF80400FFF762FD0190F0
:102AC0000323372205F1F001BDF80400FFF745FDAF
:102AD000019000270AE02348C25D05F1F001BDF82E
:102AE0000400FFF746FD0190781CC7B2032FF2D314
:102AF000324605F1F001BDF80400FFF768FD4323FD
:102B0000194A31461948CDF8008000680BF06AFC7C
:102B10008146304605F0E6FC00BF00BF03E000BF81
:102B200000BF4FF0FF39A079FF2802DAA079401CDE
:102B3000A071A0790A2805DAA0794FF47A7110FB08
:102B400001F001E042F210701FFA80FA0AF2F3106D
:102B50004FF4FA7190FBF1F0208100BF00BF4846AE
:102B6000BDE8FC9F740100200404010878010020E6
:102B70002DE9F05F1646DDF828B0514847683C6AF9
:102B8000D6F804900CB1207900B994E000BF00BFE2
:102B900000BF00BF00BF00BF00BF00BF70892C286E
:102BA00002DA00BF00BF86E099F80000022802D0D8
:102BB00000BF00BF7FE000250CE007F12600415D6B
:102BC00009F11C00405D814202D000BF00BF72E0ED
:102BD000681CC5B297F82C00A84201DD062DECD385
:102BE000D9F8040003F03EFB2168884202D000BF00
:102BF00000BF60E021463046FFF706FD10B100BF80
:102C000000BF58E000BF00BF2E48407810B900BF99
:102C100000BF50E0D6F804A02B4890F80480B8F12B
:102C2000050F26D100BF00BF6079012810D15146A1
:102C30003846FFF7B9FB97F82D0000F0080018B1EF
:102C40003846FFF77DF935E03846FFF7D1F831E037
:102C50006079032805D06079042802D060790528BE
:102C600028D151463846FFF79FFB3846FFF7C0F89A
:102C700020E0B8F1060F11D16079032808D06079FF
:102C8000012805D06079042802D06079052805D193
:102C900000BF00BF3846FFF7C7FB0BE0B8F1020FDB
:102CA00008D16079062805D100BF00BF51463846DB
:102CB000FFF7D0FB00BF304605F014FCBDE8F09FE5
:102CC0008CBD00206C010020284A01202DE9FE4324
:102CD0000646346A00BF00BF0CB9BDE8FE836079C8
:102CE00000B9FAE7A06902900020A061E0612062CB
:102CF00060622063E062A062A08260822082E08144
:102D0000304600F03FFA00283FD00021204600F076
:102D1000B3F901AB072221463046FFF773F90546A8
:102D200055B36F680423362207F1F001BDF80400A3
:102D3000FFF713FC0190029803F094FA8046424694
:102D400007F1F001BDF80400FFF71BFC01902A46D3
:102D500007F1F001BDF80400FFF739FC432302AA94
:102D600029461048009600680BF03CFB284605F009
:102D7000B9FB00BF00BF01E000BF00BF0A4B1A460D
:102D80001146304604F058FF03E00021204600F0D1
:102D900073F9207918B1FFF7E3F90020207100BF23
:102DA0009BE7000078010020000401082DE9FC47A2
:102DB00007463C6A00BF00BF0521204600F05CF9D1
:102DC00001AB032221463846FFF71CF90546002DCA
:102DD00045D06E680223392206F1F001BDF80400E7
:102DE000FFF7BBFB0190BA8C06F1F001BDF80400BF
:102DF000FFF7E0FB01900323372206F1F001BDF855
:102E00000400FFF7AAFB01904FF000080DE02548F1
:102E100010F8082006F1F001BDF80400FFF7A9FB47
:102E2000019008F1010000F0FF08B8F1030FEED3A4
:102E30002A4606F1F001BDF80400FFF7C8FB432362
:102E400004F1180229461848009700680BF0CAFAE6
:102E50008146284605F046FB00BF00BF03E000BFE7
:102E600000BF4FF0FF39A079FF2802DAA079401C9B
:102E7000A071A0790A2805DAA0794FF4FA6110FB55
:102E800001F001E044F620601FFA80FA0AF2F31024
:102E90004FF4FA7190FBF1F0208100BF00BF48466B
:102EA000BDE8FC8774010020780100202DE9FE4F69
:102EB000074600BF47B900BF5DA0FDF76DFD00BF2D
:102EC0006FF00F00BDE8FE8F00BF3C6A00BF3CB949
:102ED00000BF5EA0FDF760FD00BF6FF00500F1E7E9
:102EE00000BF00BF00BF0121204600F0C5F802ABC3
:102EF000032221463846FFF785F80646002E71D09A
:102F000075680223392205F1F001BDF80800FFF7CA
:102F100024FB0290BA8C05F1F001BDF80800FFF720
:102F200049FB02900423322205F1F001BDF80800AC
:102F3000FFF713FB0290E06903F094F983465A46C9
:102F400005F1F001BDF80800FFF71BFB0290042318
:102F5000362205F1F001BDF80800FFF7FEFA0290F5
:102F6000A06903F07FF983465A4605F1F001BDF8E8
:102F70000800FFF706FB02900323372205F1F0015A
:102F8000BDF80800FFF7E9FA02904FF000080DE0E5
:102F9000354810F8082005F1F001BDF80800FFF7EA
:102FA000E8FA029008F1010000F0FF08B8F1030F01
:102FB000EED3324605F1F001BDF80800FFF707FB3C
:102FC0002A4843232A4A3146CDE90070294800683F
:102FD0000BF096FA8146304605F084FA00BF00BF38
:102FE00004E0FFE700BF00BF4FF0FF39A079FF28E2
:102FF00002DAA079401CA071A079062803DAA17931
:103000000120884000E03C2000EB4001C1EBC010F3
:103010004FF6FF7101EAC00A0AF2F3104FF4FA7199
:1030200090FBF1F0208100BF00BF48464AE7000056
:10303000646863705F73656C6563743A206E657471
:10304000696620213D204E554C4C00006468637039
:103050005F73656C6563743A206468637020213D1A
:10306000204E554C4C000000740100200004010863
:10307000040401087801002042798A4203D041719A
:10308000002282710281704770B5044600BF3CB9CE
:1030900000BF2FA0FDF780FC00BF6FF00F0070BDD8
:1030A00000BF00BF94F82D0000F0010038B900BF48
:1030B0002BA0FDF771FC00BF6FF00F00EFE700BF22
:1030C000256A00BF00BFA08CB0F5107F04DA00BFF6
:1030D00000BF4FF0FF30E2E775B900BF00BF3420FA
:1030E00003F0ACFF054625B900BF00BF4FF0FF302D
:1030F000D5E7256200BF05E000BF00BF287908B111
:10310000FFF72EF834212846FDF7E1F800BF00BF95
:10311000FFF7C2F910B14FF0FF30C0E7012028716E
:1031200094F82D00C0F3800028B902212846FFF74B
:10313000A3FF0020B3E72046FFF78AF806462EB12A
:103140002046FFF7C3FD4FF0FF30A8E73046A6E763
:103150006E6574696620213D204E554C4C00000080
:103160006E65746966206973206E6F742075702CAB
:10317000206F6C64207374796C6520706F72743F7B
:1031800000000000014679B1086A68B10A6A507906
:103190000A2805D05079052802D05079042801D199
:1031A000012070470020FCE70020FAE770B50546D3
:1031B0002C6A00BF00BF6079012805D060790A2819
:1031C00002D06079052815D100BF00BF2846FFF75F
:1031D000EDFDA189628A881A00EBD0710122B2EB61
:1031E000610F07DCA189628A881A00EBD071C1F3F4
:1031F0004F01E18170BD70B505462C6A00BF00BF6C
:103200006079012808D060790A2805D060790528FE
:1032100002D06079042815D100BF00BF2846FFF70F
:1032200091FBA18A628A881A00EBD0710122B2EB6D
:10323000610F07DCA18A628A881A00EBD071C1F3A2
:103240004F01218270BD70B505462C6A00BF00BFDA
:1032500060790C2802D06079062805D100BF00BF34
:103260002846FEF7F5FF31E06079012811D100BF53
:1032700000BFA079052803DC2846FFF717FE25E0EC
:1032800000BF00BF2846FFF721FD2846FFF7FCFEE0
:103290001CE0607908280CD100BF00BFA07901288C
:1032A00003DC2846FEF74CFE10E02846FEF7A0FDA2
:1032B0000CE06079032809D1A079022803DA2846B6
:1032C000FFF7C2FB02E02846FEF7C2FF70BD2DE902
:1032D000F04104460E4600BF00BF354606F031FB04
:1032E0000746E06800682860E0680560384606F038
:1032F0004EFBBDE8F08170B5044606F022FB0646A1
:10330000E06805684DB12868E168086000BF00BF4B
:10331000304606F03CFB284670BD304606F037FBD1
:1033200000BF00BF0020F7E70020174908681749D1
:10333000084000BF144908600021134A51609160A1
:10334000D160114688694FF64171084040F0800015
:10335000114688614FF4A8510D4A116000210A4AB4
:10336000D1610B49803988690A49084040F00870EA
:1033700007498039886108680749084007480449B7
:103380008039086070470000008002400F8130FDE6
:1033900080900240233FDEF87D0000F80060C1020B
:1033A00010B540F2194006F015F940F2194006F048
:1033B000FFF800F025FC10BD08B500210091009039
:1033C00002E00099491E009100990029F9D108BD39
:1033D00002464FF0FF30062927D2DFE801F0222015
:1033E0000B03071E9388C3F30C001FE05368C3F35D
:1033F0000C401BE01368C3F30D4004280BD9001FD9
:103400000B4B1B6803F0007333B1137803F02003F8
:1034100013B1001D00E0002008E0906806E090680D
:1034200004E01378C3F3C30000E000BF00BF70479F
:10343000008002402DE9F0430446002100250026CB
:1034400000278C46B4F5E00F0FD12348234B052508
:1034500040F2F4564FF48017DFF88480C8F810006B
:10346000DFF88080C8F800000FE01F481F4B0525DB
:1034700040F2F456EF0744F2F45CDFF86480C8F8D9
:103480000C00DFF86C80C8F800004FF00008DFF88F
:103490006490C9F80080DFF86090C9F800800021CE
:1034A00015E000EB01121760C2F804C001FB0638FA
:1034B000C2F80880A5F10108884506D900EB01187B
:1034C00008F11008C2F80C8000E0D060491CA94245
:1034D000E7D3BDE8F0830000E4010020F81F0020DE
:1034E00000900240040000209401002034020020DB
:1034F00008000020100000200C00002000B500F0A3
:103500001BFD00F0CBFC00BD30B503460C4600218E
:10351000002238480068006800F0004008B1002030
:1035200030BD002B34D033480068008800F40040E0
:1035300060BB30480068008800F4807030B32D48CC
:103540000068008800F4007000B32A480068006832
:10355000C0F30D42121F2848006800F0007030B11F
:1035600024480068007800F0200000B1121DA2423B
:1035700001D90020D4E7002105E01E4800688068DA
:10358000405C5854491C9142F7D301E00020C7E742
:103590004FF00040174D2D6828601848406900F032
:1035A000800020B18020154D68610020A86011487E
:1035B0000068808800F4804028B10E480068C06828
:1035C0000C4D286014E00B480068808800F400402F
:1035D00020B10A48C068074D286009E00748006824
:1035E000C0F384050348006810302844014D28606A
:1035F000012095E708000020008002400090024072
:1036000070B5034600222F480068006800F00040B3
:1036100008B1002070BD40F2F450814201D9002071
:10362000F8E74BB1002205E0985C264E3668B66894
:10363000B054521C8A42F7D32248006841602148A6
:103640000068006840F040501E4E366830601D48EB
:103650000068006840F000401A4E366830601A4832
:10366000406900F004051848406900F0200405B9DD
:103670002CB145EA0400144E7061002070601148BE
:103680000068006800F4801028B10E480068C06827
:103690000C4E306014E00B480068006800F4001025
:1036A00020B109480069074E306009E0064800680B
:1036B000C0F384060348006810303044014E306087
:1036C0000120A7E7040000200090024010B54FF44D
:1036D000406005F05BFF40F6014005F057FF40F603
:1036E000024005F053FF40F6034005F04FFF40F65F
:1036F000064005F04BFF40F6074005F047FF40F657
:10370000084005F043FF4FF480720021604801F04B
:103710002DFB4FF48073002202215D4801F059FB1C
:103720004FF4807303220021594801F079FB41F2E4
:103730000E1005F02BFF4FF0C061081105F086FE5A
:103740004FF4000006F0A0FA022300221946504868
:1037500001F03FFB0223032200214D4801F060FBF2
:103760000423002202214A4801F033FB04230322F0
:103770000021474801F054FB8023002202214448E5
:1037800001F027FB802303220021414801F048FB80
:1037900002220B213E4801F0E9FA04220B213C48A9
:1037A00001F0E4FA80220B21394801F0DFFA4FF4EE
:1037B000006300220221374801F00BFB4FF4006345
:1037C00003220021334801F02BFB4FF480530022E9
:1037D0000221304801F0FDFA4FF48053032200210A
:1037E0002C4801F01DFB4FF4005300220221294810
:1037F00001F0EFFA4FF4005303220021254801F0B5
:103800000FFB4FF400620B21224801F0AFFA4FF496
:1038100080520B211F4801F0A9FA4FF400520B21EE
:103820001C4801F0A3FA0223002219461A4801F0AD
:10383000D0FA022303220021174801F0F1FA1023E5
:1038400000220221144801F0C4FA102303220021AF
:10385000114801F0E5FA2023002202210E4801F070
:10386000B8FA2023032200210B4801F0D9FA0222E2
:103870000B21094801F07AFA10220B21064801F0C9
:1038800075FA20220B21044801F070FA10BD0000E7
:103890000000024000040240000802402DE9F74FFA
:1038A00082B081468A460024002500260027A046D3
:1038B000002001908346009000F030FA48B9C548D6
:1038C000FFF77AFD00F02AFA18B9009805B0BDE8B4
:1038D000F08FFFF729FD4F46012F5CD100BF01ABF0
:1038E00001220021084600F085FABDF8040000F02E
:1038F0000400019008F10108BDF8040010B9B648B1
:103900008045ECD3B448804501D10098DEE74FF004
:1039100000084FF48050019001AB002211460220B4
:1039200000F068FA8346BBF1000F01D10098CDE7A3
:1039300000BF01AB01220021084600F05BFABDF890
:10394000040000F02000019008F10108BDF8040017
:1039500010B9A1488045ECD39F48804501D100981B
:10396000B4E74FF0000801AB1F220021084600F029
:1039700041FABDF8040000F0100010B14FF40067E8
:1039800000E00027BDF8040000F0040000B11DE0D5
:1039900047F480471AE007F40060C008019007F47C
:1039A0008040BDF8041041EA5000019001AB0022B4
:1039B0001146022000F01EFA8346BBF1000F01D130
:1039C000009883E76FF07F40FFF7F6FC83480468B8
:1039D00024F4B0443C4304600AF4806070B17F4832
:1039E000006840F480607D4908607D48846924F067
:1039F00080640AF0806004437948846177484068B5
:103A000004990843754948607648007800F0010041
:103A1000A8B174484568084604682E4672480440B8
:103A2000C04306403443084604606D4884692E460E
:103A300024F0C00406F4407644EA960484616948A0
:103A4000007800F0020040B1664886686448046867
:103A5000664804403443624804606248007800F0DD
:103A6000040040B15F48C6685D480468604804408F
:103A700034435B4804605B48007800F0080048B1BC
:103A800058480669564804684CF20200844334439F
:103A9000534804605348007800F0100040B151488A
:103AA00046694F4884695348044034434C48846114
:103AB0004C48007800F0200098B14A488569484891
:103AC00084692E464C480440C04306403443444871
:103AD000846104682E4624F0800406F08006344396
:103AE00004604048007800F0400038B13D48C569A6
:103AF0003A48C4696FF310042C43C4613948007814
:103B000000F08000C0B13748056A344884692E4609
:103B10004FF6417004408643344330488461304856
:103B2000803004682E4624F0770406F4EE4644EA1A
:103B300016242B48C0F880402A48008800F4807082
:103B400018B12848406A254988602648008800F452
:103B5000007018B12348806A2049C8602148008855
:103B600000F4806048B11F48C56A1C48446840F2B0
:103B7000DE7084432C43194844601A48008800F4DE
:103B8000006040B11748056B144804681B480440A6
:103B90002C43124804601348008800F4805038B168
:103BA0001048456B0D48046824F440042C4304601D
:103BB0000C48008800F4005038B10A48856B07486B
:103BC000046824F460242C430460012000900098D1
:103BD0007CE60000FFFF8F00FFFF04000080024032
:103BE00000900240BC3D00207FFFFFFDFFFFFEF87C
:103BF000FFC001FFE73FDEFDFBFFFFFE8FDDFEFFA5
:103C000000200849086048608860C8600861486111
:103C10008861C861086248628862C8620863486354
:103C200088637047BC3D002041F21C01B1EB901F3E
:103C30000DD10E4A02EB9011096800F01F0301221A
:103C40009A401143094B03EB901211600CE0074AB4
:103C500002EB9011096800F01F0301229A40914382
:103C6000024B03EB9012116070470000008002408D
:103C700000F01F0201219140024B03EB90121160F2
:103C800070470000008002400146074A02EB911095
:103C9000006801F01F0301229A40104008B1012082
:103CA00070470020FCE70000008002400A794B7951
:103CB00042EA0322084B03441A64CA7812068B783E
:103CC00042EA03424B7842EA03220B781A43024B42
:103CD00003445A64704700000080024010B500247D
:103CE00040F6194005F052FC40F61A4005F04EFC33
:103CF00040F61B4005F04AFCFFF752FB00F0E0F8ED
:103D000004460CB900BFFEE7002211460120FFF770
:103D1000C5FD0149086010BD18000020F8B5002657
:103D20002C48056925F01C05012005F09DFB044683
:103D30002948844205D32948844202D245F0080527
:103D400026E02648844205D32548844202D245F025
:103D50000C051DE02248844203D32248844200D24D
:103D600016E02048844205D31F48844202D245F021
:103D700004050DE01C48844202D31C48844202D34F
:103D80001A48844202D145F0100501E03046F8BDE2
:103D9000104805614FF4004000906B460022114628
:103DA000022000F027F808B93046F0E71048FFF786
:103DB00003FB6B4600221146104600F01BF808B9C1
:103DC0003046E4E7BDF8000000F4004000B90126E9
:103DD0003046DCE700800240002D3101C00E1602A3
:103DE0000087930300E1F50580D1F00800C2EB0BDA
:103DF000FFFF04002DE9F04104460D460027002096
:103E0000DFF884C0DCF810104FF6C37C21EA0C0107
:103E10004FF4F86C0CEA821C4CEA040C4FF478481E
:103E200008EAC5284CEA080C4CF0010C4CEA0101E8
:103E3000022C05D1B3F800C0DFF84C80C8F814C0DC
:103E4000DFF844C0CCF8101000BFDFF83CC0DCF84D
:103E500010C00CF001067F1C1EB1DFF830C06745B2
:103E6000F3D1DFF824C0DCF810C00CF0010CBCF179
:103E7000000F00D101202CB9DFF80CC0DCF814C011
:103E8000A3F800C0BDE8F08100800240FFFF0400FD
:103E9000416821F000414160704700000648006819
:103EA00040F00400044908600448806940F00200C2
:103EB0000249886170470000008002400090024083
:103EC00010B5002100200B4B1B6843F00103094C87
:103ED000236000BF074B1B6803F00102491C12B1AD
:103EE000054B9942F6D1034B1B6803F0010303B95C
:103EF000012010BD00900240FFFF040010B5FFF745
:103F0000E5FBFFF7EBFE0648006808B900BFFEE7D7
:103F10000448FFF789FE03480A38FFF785FE10BD05
:103F20001800002010070400026822F4400202601A
:103F300002680A430260704700B50748006840F015
:103F400008000549086000F00BF80448806940F457
:103F500000500249886100BD00800240009002408C
:103F600010B500220020094B9B6943F48013074CD5
:103F7000A36100BF054B9B6903F48011521C11B172
:103F8000034B9A42F6D301B9012010BD00900240C4
:103F9000FFFF04002DE9F05F07460E463C4600BFD8
:103FA00000BF05F0CEFC834600206060267294F8C6
:103FB000200040F0010084F8200065780020607047
:103FC000584605F0E4FCA06A20B1002204212046F6
:103FD000A36A9847A06A20B1002211462046A36A2E
:103FE0009847A06A20B1002202212046A36A984780
:103FF000304602F035FD824604F1100030B12069F0
:1040000020B1514604F1100005F00FFD04F1140039
:1040100030B1606920B1514604F1140005F005FD8E
:10402000012D03D0042D01D0032D27D194F82000B9
:10403000C0F3800900BF00BF94F8200000F0FB002F
:1040400084F8200000BF00BFB9F1000F15D100BFF8
:1040500000BF042D03D10020616A087101E0606A8D
:104060000671606A006800F10C0800BF00BF002004
:104070006062404605F04AFD00BF01E000BF00BF9E
:10408000BDE8F09F0146002902DC4842112801DB0F
:104090000520704702484A4250F82200F9E7000024
:1040A0003C0201082DE9FE4F0546884616464FF0B2
:1040B0000A09CA460A270024BB4600200290019044
:1040C000009000BF68E004EB44005A4A02EBC000D5
:1040D000017D0A2F04D119B900BF00BF274659E05E
:1040E000002957D000BF00BFB5B104EB4402514BCB
:1040F00003EBC2022868526890420DD13EB104EB36
:1041000044001A4602EBC0008068B04204D100BFF0
:1041100000BF2046BDE8FE8F012928D104EB4400F2
:10412000444A52F8300080B104EB440002EBC00076
:10413000428A029882422DDBA34604EB44003D4AAA
:1041400002EBC000408A029024E004EB4400394AAC
:1041500002EBC000428A019882421BDBA14604EBBD
:104160004400344A02EBC000408A019012E0022968
:1041700010DB04EB44002F4A02EBC000428A009897
:10418000824207DBA24604EB44002A4A02EBC0004D
:10419000408A0090601C04B20A2C94DB08F00200F4
:1041A00020B90A2F07D108F0010020B900BF00BFD5
:1041B0004FF0FF30AEE70A2F02DA3C4600BF1DE0A9
:1041C000BAF10A0F04DA544600BF00BF00BF10E086
:1041D000B9F10A0F02DA4C4600BF0AE0BBF10A0F40
:1041E00002DA5C4600BF04E000BF00BF4FF0FF30C2
:1041F00090E700BF00BF204600F01EF800BF00BFE0
:1042000000BF00BF35B104EB44010A4A02EBC10113
:1042100028684860002004EB4401064A02EBC10113
:10422000488204EB4400114601EBC0008660204642
:1042300070E70000484A012010B5044604EB440032
:10424000194951F8300070B100BF00BF04EB4401C0
:10425000154A52F8310004F045F9002004EB4401FE
:10426000114A42F83100002004EB44010E4A02EBEF
:10427000C101087504EB440102EBC101488204EB63
:10428000440102EBC101886004EB440102EBC1016F
:10429000486004EB4400114601EBC00003490A6882
:1042A000C2608988018210BD484A01200E040108BD
:1042B000F0B587B007460D4600BF35B900BF35A041
:1042C000FCF76AFB00BF07B0F0BD00BF7C68208828
:1042D000B0F5807F08D12079062805D160790428BF
:1042E00002D16088082805D000BF00BF384604F01E
:1042F000F9F8E8E7D4F80E000690A0690590686820
:1043000008B9002607E005986968884201D10120B4
:1043100000E0002006460EB1012000E00220034626
:1043200004F1080206A9284600F002FBE088B0F577
:10433000807F03D0B0F5007F22D11AE000BF00BF1C
:1043400086B1022206AB04F10800291DCDE9023234
:10435000CDE9001005F1260302462231284600F07F
:10436000FFF905E0686808B900BF01E000BF00BFC1
:1043700009E000BF00BF06A92846FDF711FD02E0D5
:1043800000BF00BF00BF00BF384604F0ABF800BF5D
:1043900099E700006E6574696620213D204E554CFA
:1043A0004C0000002DE9FE43044689461546A84608
:1043B00000BF00BF00BF00BF00BF00BF214628688C
:1043C00000F0E2FE08B1494F85E0287800F0F000E7
:1043D000E02815D101208DF8040000208DF805009B
:1043E0005E208DF80600687800F07F008DF80700E9
:1043F000A8788DF80800E8788DF8090001AF69E029
:104400002868A1680840D4E90112114088420ED002
:10441000288880B24FF6A961884208D0E06810B1C0
:1044200004F10C0803E06FF00300BDE8FE833048A0
:10443000007800EB40002F4901EBC000007D02280E
:104440001BDB2B48007800EB400001EBC0008068CC
:10445000A04212D12649097801EB4101254A02EB1D
:10446000C101D8F800004968884206D12048027886
:104470004946204600F040F8D7E7002622E006EB48
:1044800046001C4901EBC000007D022818DB06EB4A
:10449000460001EBC0008068A04211D106EB460146
:1044A000144A02EBC101D8F800004968884207D1DC
:1044B0000F48067032464946204600F01DF8B4E722
:1044C000701CC6B20A2EDADB4A464146204600F08E
:1044D0006FF8AAE700BF4FF400603B4604F12602E4
:1044E00049460090204600F0F5FA9EE708040108CE
:1044F00084010020484A0120F8B505460E461446BE
:1045000000BF00BF04EB4400284901EBC000007D60
:10451000022839D104EB440001EBC000408AB0F519
:104520008E7F11DD04EB44000A4602EBC000011D42
:10453000284600F067F938BB032004EB44011B4A0E
:1045400002EBC10108751FE004EB4400174901EBC1
:10455000C000408AB0F5877F16DB04EB44000B46B1
:1045600003EBC00000F10C0204EB440003EBC000BD
:10457000011D284600F054F930B9032004EB440132
:104580000A4A02EBC10108754FF40060009004EB89
:104590004400064901EBC00000F10C0305F12602BE
:1045A0003146284600F096FAF8BD0000484A01203E
:1045B0002DE9FC5F80460E46154608F12600019065
:1045C0004FF0FF3A4FF0000B4146306800F0DCFD41
:1045D00038B9307800F0F000E02802D00EB1306831
:1045E00028B900BF00BF6FF00F00BDE8FC9F424636
:1045F00001213046FFF756FD8146B9F1000F07DA79
:1046000000BF00BF0DB100BF00BF4FFA89F0ECE75B
:1046100000BF00BF09F0FF0404EB44004E4901EB6A
:10462000C000007D78B94FF0010B012004EB44017C
:10463000494A02EBC101087504EB4400114601EB45
:10464000C000C0F8088000BF00BFBBF1000F00D160
:10465000F5B93146404600F0D5F88246BAF1000F70
:1046600013D104EB44003C4901EBC000007D01285C
:104670000BD1BBF1000F08D100BF00BF002004EB3D
:104680004401354A02EBC10148820DB95046ACE7FE
:1046900000BF00BF04EB44002F4901EBC000007DC8
:1046A000022811DB2D4804704FF40060009004EBE9
:1046B000440001EBC00000F10C0329464046019A7A
:1046C00000F008FA824644E004EB4400224901EB82
:1046D000C000007D01283CD1002000902F4609E059
:1046E00000BF00BF387B00F0400010B101200090F7
:1046F00002E03F68002FF3D100BF009838B12A468E
:104700004FF420710E2003F049FD074603E02F46C9
:10471000384603F0A3FFBFB104EB44000E4951F843
:10472000300040B100BF00BF04EB44010A4A52F818
:10473000310003F0D7FE04EB4400074941F8307024
:104740004FF0000A00BF03E000BF00BF4FF0FF3A88
:1047500000BF504649E70000484A0120840100207C
:104760002DE9FC5F81460E4617469846DDE90CAB05
:104770000020019000BF00BF4FF420721C210E20CA
:1047800003F0D4FB05462DB900BF00BF4FF0FF304A
:10479000BDE8FC9F00BF00BF6C6800BF00BF0F9862
:1047A00001F06DFDE08000BF00BFD8F80000A06000
:1047B000B8F80400A081DBF80000C4F81200BBF8D0
:1047C0000400E082DAF80000C4F80E000E980068D9
:1047D000A0614FF480702080082060800620207146
:1047E0000420607140F606003B46324629460090A0
:1047F000484600F06FF9284603F074FE0025019842
:10480000C6E7000070B504460D4600BF00BF034A6E
:104810002946204600F004F870BD00000804010895
:104820007FB504460D4616460121074A201D04F1B6
:1048300026038DE825000391324619462046FFF7EE
:104840008FFF04B070BD00000E04010870B500BFFA
:1048500000BF002466E004EB4400344901EBC000D3
:10486000057D002D5DD004EB440001EBC000408AC3
:10487000401C04EB44012D4A02EBC101488204EBC9
:104880004400114601EBC000408AB0F5967F0DDA76
:1048900004EB440001EBC000007D01280CD104EBC7
:1048A000440001EBC000408A052805DB00BF00BFC3
:1048B0002046FFF7C1FC34E004EB44001B4901EB48
:1048C000C000007D032807D1042004EB4401174AEF
:1048D00002EBC101087524E004EB4400134901EB2D
:1048E000C000007D042807D1022004EB44010F4AD8
:1048F00002EBC101087514E004EB44000B4901EB25
:10490000C000007D01280CD104EB44020B4603EBF0
:10491000C202111D04EB440203EBC2029068FFF7D0
:1049200071FF641C0A2C96DB70BD0000484A012010
:104930002DE9F84306460D461746984600BF00BFCE
:1049400000BF00BF5DB1286848B13146286800F05B
:104950001BFC20B9287800F0F000E02805D100BF4A
:1049600000BF6FF00F00BDE8F8833246414628468D
:10497000FFF798FB0446002C01DA60B2F3E702204F
:1049800004EB44011C4A02EBC101087504EB44002E
:10499000114601EBC000866000BF00BF04EB44007D
:1049A00001EBC0003968C160B9880182002004EBC6
:1049B000440102EBC101488204EB4400114651F866
:1049C0003000B0B104EB440051F83090002004EB0B
:1049D000440142F831004FF400603B4606F12602E4
:1049E00049460090304600F075F8484603F07AFDDD
:1049F00000BF0020B7E70000484A01202DE9F04140
:104A000004460E464FF00E0860890E2800DC59E07F
:104A1000E07B18B996F83000401CE073656800BF71
:104A200000BFAF89287800F00100B0B128780128D4
:104A300009D1687888B9A8785E280ED1607B40F0EB
:104A40001000607309E0062221492846FBF74AFC62
:104A500018B9607B40F008006073082F03D0B7F5E9
:104A6000C16F2AD114E096F82D0000F0080000B9BB
:104A700028E04146204603F003FE20B100BF00BFFE
:104A800000BF00BF1EE03146204600F0A5FC15E047
:104A900096F82D0000F0080000B913E041462046CA
:104AA00003F0EEFD20B100BF00BF00BF00BF09E072
:104AB00031462046FFF7FCFB00E003E000BF00208A
:104AC000BDE8F081204603F00DFD0020F8E700006E
:104AD000080401082DE9F04706460D46174698469A
:104AE000DDF82090484601F0CAFB82460E21284698
:104AF00003F0DEF900B117E06C68A4F80CA0D8F858
:104B000000002060B8F80400A0803868C4F80600EF
:104B1000B888608100BF00BF00BF00BF2946304693
:104B2000B2699047BDE8F08700BF00BF6FF0010099
:104B3000F8E7000010B5044600BF00BF472084F826
:104B40002E0044212F200155044860610448A061D3
:104B5000204601F029F9002010BD0000A5430008FF
:104B6000095F000800BF6421104800680AF088FE51
:104B70000128F8D100BF04F0E4FE05460C480068A7
:104B800001F090F90446284604F001FF002CEAD019
:104B9000074800680269064801682046904718B136
:104BA000204603F09FFCDEE7E5E70000B8000020A8
:104BB000B40000202DE9F84F05460E46DDB1AF697F
:104BC000002F12DA04F0BDFE8146A869002808DA39
:104BD00016B9A869401EA861484604F0D8FEBDE891
:104BE000F88FAF69484604F0D2FE384600F0A6F8C8
:104BF00004460CB9F3E7F2E74FF0010804F0A1FE18
:104C00008146052E24D2DFE806F0030E151C200095
:104C10002089401C00B22081B4F90800012801DD80
:104C20004FF0000817E02089401E00B220814FF0AD
:104C3000000810E0608908B14FF000080120608191
:104C400009E000206081804605E00120A08102E0AB
:104C500000BF00BF00BF00BFA07B00B3B8F1000FD2
:104C60001DD0B4F90800002801DD012000E000207B
:104C70008246608908B1012000E000208346A089B7
:104C800008B1012000E000200090484604F07FFEBB
:104C90005A4651463846009B04F036FD02E048462D
:104CA00004F075FE00BF9AE770B504460D46E1B208
:104CB000054809F09DFD00BF0721034809F00FFEDC
:104CC0000028F9D0204670BD001001402DE9FC41BC
:104CD00005460C4604F035FE07466B4601AA214600
:104CE000284600F01FF80646384604F050FE26B16C
:104CF0006A462046019900F002F8BDE8FC8170B5D3
:104D000006460D461446206838B11EB1206803F0EF
:104D1000E9FB02E0206802F045FB15B1284602F0ED
:104D200065FC70BD10B504466068186000206060C6
:104D30002068106000202060012010BD70B504467E
:104D4000204608F0C7FF054665B9002C01DB042C9E
:104D500001DB00BF00BF00BF09200349086000BF9E
:104D6000002070BD2846FCE79C000020F0B50346FB
:104D70001C6A5D6A00200DE00126864016403EB1A7
:104D800087000F26BE40B443860001FA06F634437E
:104D9000461CB0B20828EFD3082011E00126864057
:104DA00016405EB1A0F10806B7000F26BE40B5431D
:104DB000A0F10806B60001FA06F63543461CB0B26B
:104DC0001028EBD31C625D62F0BD81627047816187
:104DD0007047F0B504460D4616462168E26800208B
:104DE00019E0012787401F409FB14FEA400C03277D
:104DF00007FA0CF7B943470005FA07F739434FEABA
:104E0000400C032707FA0CF7BA43470006FA07F7E6
:104E10003A43471CB8B21028E3D32160E260F0BDEA
:104E2000F0B50C461546012C03D146681E4346607A
:104E300002E046689E434660826800210DE001263C
:104E40008E401E403EB14F000326BE40B2434E008E
:104E500005FA06F632434E1CB1B21029EFD3826038
:104E6000F0BD70B505460C4622460321284600F0E9
:104E7000EDF870BD2DE9F04F85B004468A467248C2
:104E800080680390039800780007860E142E02DADB
:104E900000BF00BFCFE06089042802D200BF00BF7E
:104EA000C9E06068057860684078049015B1082D05
:104EB00072D100E0BAE0DFF8909109F1140962487C
:104EC000007D00F0F000E02802D100BF00BFB6E096
:104ED0005D4A1168506900F057F910B100BF00BF7A
:104EE000ADE000BF00BF2089082802D200BF00BF8C
:104EF000A1E0204600F003F938B100BF00BF204612
:104F000003F0F0FA05B0BDE8F08F06F10E0120467F
:104F100002F0CEFF78B3208930441FFA80FB20894D
:104F2000584502DD00BF00BF89E04FF420725946AA
:104F30000E2002F0FBFF074617B900BF00BF7EE05E
:104F4000798906F10800814205D200BF00BF3846CA
:104F500003F0C8FA73E0324678680399FBF790F9DA
:104F60003146384603F08CFB30B100BF00BF3846F5
:104F700003F0B8FA63E010E02146384603F026F962
:104F800028B100BF00BF384603F0ACFA57E0204616
:104F900003F0A8FA3C4609E034E006F10E01204691
:104FA00003F06EFB10B100BF00BF48E0D4F80480EE
:104FB0003146204602F07CFF08B100BF21E067685F
:104FC000D9F80000F860204800693861002088F8AE
:104FD0000000A8F80200FF2038720020788101202C
:104FE0000021FF230A46CDE9010A009149462046E7
:104FF00000F014FB8346BBF1000F01D000BF00BFDF
:1050000000BF13E0032D0ED00B2D0CD00C2D0AD0B9
:10501000042D08D0052D06D00D2D04D00E2D02D064
:10502000112D00D000BF00BF00BF00BF00BF204651
:1050300003F058FA66E7204603F054FA62E7204688
:1050400003F050FA00BF5DE78CBD00202DE9FF5F43
:105050000546894692464FF01C082889404501DAEA
:10506000B5F8088008F1080081B24FF420722220C0
:1050700002F05CFF06461EB900BF00BFBDE8FF9FFF
:1050800000BF00BFD5F804B000BF00BF00BF00BF25
:1050900000BF00BF00BF00BF00BF00BF746884F83E
:1050A000009084F801A00020A080E0806968726808
:1050B00002F108004246FBF7E3F8DBF80C0003902E
:1050C00003A800F049FC07465FB100206080012082
:1050D0000021FF2303AACDE901070091304600F02B
:1050E0009DFA304603F0FEF900BFC7E770B50546EC
:1050F0000C4622460B212846FFF7A8FF70BDF0B5ED
:10510000064600270024354619E06989686801F0E1
:105110008BFE0444A0B200EB1444688900EBD0710C
:105120004910A0EB410149B10FB9012000E0002076
:105130000746E0B2C4F3072141EA00242D68002DA0
:10514000E3D127B1E0B2C4F3072141EA0024E043F0
:1051500080B2F0BD1CB5FEF7D1FE01F037FE002095
:10516000022103464FF4FA72CDE9001004A105486C
:105170000AF0D2FC00BF002009F0E8FDFBE70000C8
:1051800074637000C1A0000818B502460092D043B5
:1051900000B10AB9012018BD91F82D0000F00200FD
:1051A00008B90020F7E74868904201D10020F2E7F3
:1051B00000988B681840D1E901342340984208D107
:1051C000886822EA00008C68E343984201D10120FC
:1051D000E1E70020DFE700002DE9F74F8CB004463F
:1051E0000F464FF00008B98CA1F11400C11700EB75
:1051F0005171C1F3CF0A1420059060680990DDF861
:10520000249099F8000000F00F001421B1EB800FFA
:1052100004D06FF005000FB0BDE8F08F00BF6089CB
:10522000142807DA00BF64A0FBF7B6FB00BF6FF0DD
:105230000500F0E700BFB9F8060001F020F804907F
:105240000498C0F30C000790049800F400500390F9
:10525000208914381FFA80FBA4E04FF6FF7000EAA3
:10526000CA00584501DD584603E04FF6FF7000EADA
:10527000CA0008904FF4207214210E2002F056FE4E
:10528000054605B994E000BF00BF1422686809997B
:10529000FAF7F6FFD5F8049008980A9047E061897C
:1052A0000598081A80B2029000BF00BF02990A98C0
:1052B000884201DA0A9800E002988046B8F1000FAF
:1052C00003D100200590246831E000F091FB0646F0
:1052D0001EB9284603F006F96AE06168059808449B
:1052E000334641224146CDE90008002002F0D4FEB9
:1052F0000B900B9830B9304600F07FFB284603F046
:10530000F1F855E0204603F0A9F9746131483061A5
:1053100028460B9902F0EEFE0A98A0EB080080B236
:105320000A900A9810B100200590246800BF0A98DE
:105330000028B4D10598404480B20590B88C143848
:10534000584501DB012000E0002006900798C0F3DB
:105350000C000490069808B1039818B1049840F422
:1053600000500490049800F08AFFA9F806000899FC
:10537000143188B200F083FFA9F802000020A9F8D8
:105380000A007B69294638460E9A9847284603F05A
:10539000A9F80898ABEB00001FFA80FB079850446F
:1053A00080B20790BBF1000F7FF457AF002032E7C7
:1053B0004FF0FF302FE700006970345F667261675D
:1053C00028293A207062756620746F6F2073686FA9
:1053D00072740000895D00082DE9F04706460F460B
:1053E0004FF0010A756828780421B1EB201F07D01F
:1053F00000BF00BF304603F075F80020BDE8F0871D
:10540000287800074FEA9068688800F038FF8146E6
:105410003189494503DD4946304603F0DFF870899C
:10542000404505DB3089484502DBB8F1140F13DA3B
:10543000B8F1140F01DA00BF00BF7089404501DAEE
:1054400000BF00BF3089484501DA00BF00BF3046C9
:1054500003F048F80020D1E728695F494861E8680F
:1054600008610846007D00F0F000E0280AD197F8B6
:105470002D0000F0010018B1786808B13C461CE02E
:1054800000241AE0384600F0ABF808B13C4614E0BE
:1054900000245148007D7F280FD05048046809E05F
:1054A000BC4200D105E0204600F09AF800B103E0CC
:1054B00000BF2468002CF3D100BF84B9687A11289A
:1054C0000DD105EB080000BF00BF4188B1F5884F42
:1054D00004D100BF00BF3C464FF0000A00BFBAF144
:1054E000000F15D03C48006990B13B490869394626
:1054F000FFF74AFE28B93848007C00F0F000E028A9
:1055000006D100BF00BF304602F0ECFF002075E777
:1055100034B900BF00BF304602F0E4FF00206DE761
:10552000E8884FF63F71084048B100BF00BF3046E1
:1055300000F002F906460EB900205FE7756800BF6B
:1055400000BF00BF00BF2448046047608560287822
:105550000007800E204988814146304603F090F8CC
:10556000687A01280DD0062806D011280ED13946B8
:10557000304608F0DBFC24E03946304605F018FAE6
:105580001FE039463046FFF775FC1AE012494869BA
:105590002146FFF7F9FD70B90F48007D00F0F000DB
:1055A000E02808D00FFA88F1304602F0EEFF022121
:1055B0003046FFF756FC00BF00BF304602F092FFB6
:1055C00000BF00BF002004490860486088608881EF
:1055D0000861486100BF11E78CBD00200401002074
:1055E00010B5044600BF00BF94F82D0000F0010084
:1055F00080B1606870B1084840696168884205D030
:10560000054948692146FFF7BFFD18B100BF00BF3B
:10561000012010BD0020FCE78CBD00202DE9FE4FCD
:1056200007460C4615469846DDE90C9A0E9EA346A1
:1056300025B10CB1206808B906F1040B43462A468F
:1056400059463846CDE9009A029600F003F8BDE8C5
:10565000FE8F00002DE9F84F05460F4690469A460A
:10566000DDF828B00C9E00BF00BFB8F1000F3CD0A1
:105670004FF014091421284602F01AFC28B100BF8B
:1056800000BF6FF00100BDE8F88F6C6800BF00BF7D
:1056900084F808A00B986072D8F800002061484692
:1056A0004FEAE97109EB9171C1F3870141F04001C3
:1056B000217084F801B0288900F0E1FD60800020AD
:1056C000E0801B48008800F0DAFDA08018480088C0
:1056D000401C174908801FB916480068E06001E0C7
:1056E0003868E060002060810BE06889142804DAE3
:1056F00000BF00BF6FF00100C5E76C682069009033
:10570000E84600BF00BFB08C48B12889B18C884200
:1057100005DD424631462846FFF75EFDB3E700BF90
:1057200000BF42462946304673699847ABE7000000
:1057300086010020000401082DE9F14F84B004988F
:105740004568287800F00F001421B1EB800F02D0DB
:1057500000BF00BFF5E0E88800F091FDC0F30C0049
:105760004FF6FF7101EAC00A688800F088FD07461D
:1057700028780007810E02910299B94200DDE0E02D
:105780000298381A87B2049802F0FFFC0646704867
:105790000188881914280CDD3146284600F092FA59
:1057A00020B16B4800883044142802DD00BF00BFE0
:1057B000C7E06848046813E06069E968884209D175
:1057C000A0692969884205D1A089A988884201D1A8
:1057D000012000E0002010B100BF00BF02E02468FB
:1057E000002CE9D100BF34B93146284600F0EEF96B
:1057F000044694B9A5E0E88800F041FDC0F30C0030
:1058000058B9E08900F03BFDC0F30C0028B1142228
:10581000294604F10800FAF733FDE888012121EA5E
:1058200050100190019850B10AEB070188B2504521
:1058300003DB4FF6EB71884200DD77E000BF2046C6
:10584000019A049900F0E2F883460BF1010000B9D7
:105850006CE03F48008830443D490880019850B1D1
:105860000AEB070188B2A083A17F41F00101A17773
:1058700000BF00BF00BFBBF1010F53D1A08B14309C
:1058800080B2009060684068D0F800906068456819
:10589000142204F108012846FAF7F2FC009800F0FF
:1058A000EEFC68800020E8806881606804900DE06C
:1058B000D9F8040003901421484602F0E1FE49465D
:1058C000049802F017FC0398D0F80090B9F1000F8B
:1058D000EED120480068844202D14FF000080EE06B
:1058E0001C48D0F8008006E0D8F80000A04200D1A3
:1058F00004E0D8F80080B8F1000FF5D100BF4146B0
:10590000204600F04DF9049802F03FFC064600BF27
:1059100000BF0F480088801B0D490880049805B01F
:10592000BDE8F08F00BF00BF0020F8E700BF00BF58
:10593000606828B900BF00BF0021204600F030F9A0
:1059400000BF00BF00BF049802F0CCFD0020E6E7D6
:105950008C0100208801002010B502462248016811
:1059600021E091F82D0000F00100D8B191F82D0050
:10597000C0F38000B0B14868A0B110688B681840CF
:10598000D1E901342340984201D1084610BD91F875
:105990002D0000F0020028B91068CB68984201D1B0
:1059A0000846F3E709680029DBD110480068A0B178
:1059B0000E48006890F82D0000F0010068B10B4817
:1059C000006890F82D00C0F3800030B107480068EF
:1059D000406810B110787F2803D100BF00BF0020BD
:1059E000D4E702480068D1E7040100200801002044
:1059F00010B5052001F0AAFC10BD10B5044600BF8B
:105A000000BF2146052001F053FC10BD2DE9F74FE2
:105A100084B007468846002501200190D8F804008C
:105A200002900299488800F02AFC83460298007888
:105A30000007800E03900398584503DD681E07B0E9
:105A4000BDE8F08F0398ABEB00001FFA80FB0299D2
:105A5000C88800F014FCC0F30C004FF6FF7101EA97
:105A6000C00A00BF00BFD8F8044000202060A4F89E
:105A700004A00AEB0B00E080E088504502DA4FF00A
:105A8000FF30DCE7D7F804903EE0D9F80460A08846
:105A9000B188884220DAC4F800909DB1A088E988D6
:105AA000884203DBE088B188884202DD4FF0FF3096
:105AB000C5E7C5F80080E888A18888420BD000209F
:105AC000019008E0E088B188884202DD4FF0FF30A5
:105AD000B5E7C7F804801AE0A088B188884202D1EF
